:0200000460009A
:100000004643464200000156000000000103030081
:1000100000000000000000000000000000000000E0
:1000200000000000000000000000000000000000D0
:1000300000000000000000000000000000000000C0
:1000400000000000010408000000000000000000A3
:100050000000800000000000000000000000000020
:100060000000000000000000000000000000000090
:100070000000000000000000000000000000000080
:10008000EB04180A063204260000000000000000FD
:10009000050404240000000000000000000000002F
:1000A0000000000000000000000000000000000050
:1000B0000604000000000000000000000000000036
:1000C0000000000000000000000000000000000030
:1000D00020041808000000000000000000000000DC
:1000E0000000000000000000000000000000000010
:1000F0000000000000000000000000000000000000
:10010000D8041808000000000000000000000000F3
:100110000204180804200000000000000000000095
:1001200000000000000000000000000000000000CF
:10013000600400000000000000000000000000005B
:1001400000000000000000000000000000000000AF
:10015000000000000000000000000000000000009F
:10016000000000000000000000000000000000008F
:10017000000000000000000000000000000000007F
:10018000000000000000000000000000000000006F
:10019000000000000000000000000000000000005F
:1001A000000000000000000000000000000000004F
:1001B000000000000000000000000000000000003F
:1001C000000100000010000001000000000000001D
:1001D000000001000000000000000000000000001E
:1001E000000000000000000000000000000000000F
:1001F00000000000000000000000000000000000FF
:10020000FFFFFFFFFFFFFFFFFFFFFFFFFFFFFFFFFE
:10021000FFFFFFFFFFFFFFFFFFFFFFFFFFFFFFFFEE
:10100000D10020434D1600600000000000000000E9
:10101000201000600010006000F802600000000076
:10102000000000600004030000000000FFFFFFFF5D
:10103000FFFFFFFFFFFFFFFFFFFFFFFFFFFFFFFFC0
:10104000FFFFFFFFFFFFFFFFFFFFFFFFFFFFFFFFB0
:10105000FFFFFFFFFFFFFFFFFFFFFFFFFFFFFFFFA0
:10106000FFFFFFFFFFFFFFFFFFFFFFFFFFFFFFFF90
:10140000814205D051F8043B40F8043B8242F9D8B0
:10141000704700BF044A05494FF0000342F8043BFF
:101420009142FBD8704700BFC06E002080C60020EC
:101430002DE98848BFF34F8F00BF00BF00BF00BF3A
:1014400001F0C0FA684B0822C3F8542100BF00BF66
:1014500000BF00BF00BF00BF00BF00BF00BF00BF94
:1014600000BF00BF00BF00BF00BF00BF5F4A6049B0
:101470006048FFF7C5FF604A60496148FFF7C0FF59
:10148000604CFFF7C7FF4FF470004FF0E0210023DE
:101490005D4AC1F8880D44F823200133B02BFAD1FE
:1014A0005A4B80215A4A03F8011B9342FBD14FF05B
:1014B000E0254D4E4FF08039DFF884B1DFF884A18C
:1014C0004FF0FF31C5F8084D0027C6F80491C6F863
:1014D00000B1C6F8F490C6F8F0A0D5F8243DDFF8C6
:1014E000688143F4E0234B4AC5F8243DD8F81C300A
:1014F00023F07F0343F04003C8F81C30D8F82430B1
:1015000023F07F0343F04003C8F824309166D1668E
:101510001167516701F05EFA3F4B4049A363404BAE
:10152000E36363236B610323AF612B613D4BC5F81C
:10153000203DD5F8FC3D43F08073C5F8FC3D3A4BA7
:101540001A6842F001021A605B680B6001F08CFCC3
:10155000C6F804913548C6F800B1C6F8F490C6F84C
:10156000F0A001F04DFDD8F86C10314B314A41F438
:101570004051C8F86C101F60C3F80871C3F81871A7
:10158000C3F82871C3F83871936BDB0708D442F6AF
:101590001563294951651365936B43F00103936308
:1015A000244A264C936843F00113936001F09AFAA1
:1015B00000F0E0FD01F058FD01F084FC01F004FAB8
:1015C0002368132BFCD900F037FD2368B3F5967F11
:1015D000FBD301F0FDF901F0F9F901F029FD01F06B
:1015E00017FD30BFFDE700BF00800D40184E020020
:1015F000003A006000000000C06E00201C880260FD
:1016000000000020006C0020C96E010000E400E032
:10161000A0E400E000C00A4081670100C4C50020CA
:101620005D68010000002020001000E00046C32398
:101630000040084000400D400000C056C8C50020D2
:101640001B1018200C0D111300C00F40054B4FF458
:101650002A01054A05485A641864054A9963954663
:10166000FFF7E6FE00C00A40FFABAAAA0700200071
:101670000080052007EE901ADFED196A10F4C01FF4
:10168000B8EE677A07EE902A00F07F02F8EE677AEC
:1016900087EE270A07EE902AC0F3C142F8EEE77AF8
:1016A00030EE270A20EE260A08D1F5EE007A20EE69
:1016B000270A012B0AD0032B0DD07047012AF8D13D
:1016C000F6EE007A012B20EE270AF4D1F6EE007A2E
:1016D00020EE270A7047F5EE007A20EE270A7047C1
:1016E000001BB74BDFED5D7AB4EEE70A2DE9F0435E
:1016F000F1EE10FA83B004460E4615460A980CDC4B
:10170000DFED577AB4EEE70AF1EE10FA40F3948079
:10171000B1EE006A4122042703E0B0EE006A212204
:101720000227DFED506A4FF0880C1A704FF0000866
:10173000C6EE807A4C4A9FED4D7A02F1010E02F11D
:101740001E01C7EE866A01E01EF801CB4FEA1C13AA
:101750000CF00F09AEEB020C13FB09F307EE903A05
:101760000CF1FF33F8EEE77A77EEE67AF0EEE77AFF
:10177000F4EEC77AF1EE10FA02D5B0EE677A984629
:101780008E45E1D112F8083020EE060ADFED386A06
:101790004FEA1318037003F00F039FED367A18FB1E
:1017A00003F807EE908AF8EEE77A60EE277A87EE84
:1017B000A60AB4EEC70AF1EE10FA3AD4DFED2E7A9B
:1017C000B4EE670AF1EE10FA37FE800A01A807FBB3
:1017D00008F801F041FCDFED297ADDED016A6FF0D8
:1017E000604220EE270A9FED226AFCEEE66A07EED1
:1017F000908ABCEEC07A16EE903AF8EEE77A237043
:10180000F8EE475A2A6086ED007AD5ED006A237813
:10181000F8EE666A07EE103A85EEA60AB8EE477A49
:1018200030EE070A20EE060A80EE270A03B0BDE874
:10183000F083B0EE470AC9E79FED117AB2EE006A75
:10184000F3EE007AB4EEC70AF1EE10FACBBF4222F3
:1018500044220827102736FE276A62E7DAF81A4D75
:10186000DAF89A4C4775684E882A00200000807F7D
:10187000001BB74BFCA9D84102AB58420000004EF8
:10188000DAF81A4C026838B52E4B9A4215D02E4B16
:101890001A6A9D6AC2F3C1429C6AC5F34225012AB5
:1018A000C4F3426416D0022A35D0D2B1631C274853
:1018B00005FB0333B0FBF3F038BDA3F530231A6BFF
:1018C0001D6BC2F3C1121C6BC5F30235012AC4F3B0
:1018D0004224E8D1631C1E4805FB0333B0FBF3F040
:1018E00038BD1C4AD2F87031106F990DC3F3C03364
:1018F00001F002010B43D2F88010D2F89020FFF7DC
:10190000B9FEFCEEC07A631C17EE900A05FB0333A8
:10191000B0FBF3F038BD0F4BD3F8A000D3F8B010F4
:10192000D3F8C020D3F870319B0FFFF7A3FEFCEE75
:10193000C07A631C17EE900A05FB0333B0FBF3F08B
:1019400038BD00BF00C01A4000C00F4000389C1CCA
:1019500080204B1E00800D40094B0A6810B40468BB
:101960009C4208BF9A420CBF0120002005D09C4237
:1019700018BF9A4214BF012000205DF8044B704745
:1019800000C01A40022970B408D1274C4FF48835A2
:10199000C4F8A8504FF40055C4F8A450234C05686F
:1019A000A54222D04568C9045B06286801F4C0112D
:1019B0006E685202046803F0606302F4606224EA15
:1019C000060404601A4C266A26F4C01C41EA0C0185
:1019D0002162A16A21F00E210B431A43A2626A68B8
:1019E0000368134370BC0360704740685B021203D6
:1019F000046803F46063466802F4E0422568C901A4
:101A000025EA06050A4E01F4C0712560356B25F400
:101A1000FF452B4313430B4333632368426813434F
:101A2000236070BC704700BF00800D4000C01A40AA
:101A300000C00F4070B53F4C8822DFED3F7A002692
:101A4000611C9FED3E7AC7EE806A04F11E0C0D46C4
:101A500001E015F8012B130902F00F0E2A1B13FBEE
:101A60000EF307EE903A531EF8EEE77A77EEE67A39
:101A7000F0EEE77AB4EEE77AF1EE10FA02DDB0EEBE
:101A8000677A1E466545E4D1DFED2D7A8822A65D92
:101A9000002587EE806ADFED296A01E011F8012B4D
:101AA000130902F00F0E0A1B13FB0EF307EE903A18
:101AB000531EF8EEE77A77EEC67AF0EEE77AF4EEA8
:101AC000E76AF1EE10FA02DDF0EE676A1D46614545
:101AD000E4D1F4EEC76A635DF1EE10FA14DB340969
:101AE00006F00F0603219FED147A621E731E14FB8D
:101AF00006F4DBB207EE904AD2B2FFF743FFF8EEEE
:101B0000E77A87EE270A70BD1C0903F00F05012153
:101B10009FED0B7A621E6B1E14FB05F4DBB207EE21
:101B2000904AD2B2FFF72EFFF8EEE77A87EE270A47
:101B300070BD00BF882A0020C0E1E44D0000807F16
:101B40000459F24D30B587B00DF10F040DF10E03BD
:101B500005AA04A9009404460DF10D00FFF7C2FD8B
:101B60009DF80E209DF80D3010091D4903F03F032C
:101B700002F00F02A0F10200022AB0FA80F04FEA50
:101B8000501043EAC0430B67049BC1F88030059BAB
:101B9000C1F8903020D0042A18D1124B1D46C1F84C
:101BA00078310F4B4FF4005220460021C3F8745196
:101BB0005A679DF80F2002F00F031209013B013A0A
:101BC000DBB2D2B2FFF7DEFE07B030BD0025044B1A
:101BD000044AC3F87821E4E74FF40045F7E700BF73
:101BE00000800D400080800010B586B00DF10F041C
:101BF0000DF10E0305AA04A9009404460DF10D0091
:101C0000FFF770FD9DF80E209DF80D3010091C495E
:101C100003F07F0302F00F02A0F10200022AB0FAE3
:101C200080F04FEA501043EAC043C1F8A030049B53
:101C3000C1F8B030059BC1F8C0301ED0042A14BFD3
:101C400000214FF040410E4B4FF040422046C3F878
:101C500078214FF40052C3F874110221C3F8A42074
:101C60009DF80F2002F00F031209013B013ADBB28D
:101C7000D2B2FFF787FE06B010BD4FF08041E2E719
:101C800000800D40F8B50546002605F1140405F165
:101C9000A407314640F8046B01F0D2F904F8046C53
:101CA0000021204601F0CCF9002104F10C0001F0E4
:101CB000C7F904F118003034002101F0C1F9BC4229
:101CC000ECD12846F8BD00BFF8B5194C054623787D
:101CD000BBB9071D05F17004A5F1200604F11C0035
:101CE00001F0C6F904F1100001F0C2F9201D303CEA
:101CF00001F0BEF9B442F1D1384601F0B9F92846F5
:101D0000F8BD00682F4601F09FF9002306460949F7
:101D100047F8043B3846237001F076F9002ED9D0FD
:101D2000304601F081F9044601F09AF90460D1E7E8
:101D300035C60020DC2100202448254BD0F8802027
:101D4000244942F4405210B4C0F88020224C234A67
:101D50001C6023485A60234A1862234C5A62234865
:101D6000234A9C6246F62014D86240F6A3101A63F8
:101D70004FF4C862596359634FF4C841DC603F2493
:101D80009860D9619A611A681A4822F080021A494B
:101D90001A601A6822F00C021A601A6822F0030214
:101DA00042F002021A605C6118610020D3F8A020A2
:101DB0005DF8044B22F00202C3F8A0201A6822F456
:101DC00080321A60DA6F1B6C0860704700C00F40E9
:101DD00000C00C402F002E00401001002200010026
:101DE00068050C019501B200DC007A007D00580006
:101DF0004B004000C409800C98C30020074A1368B8
:101E000043F48033136013689B04FCD5044AD2F872
:101E1000803023F44053C2F88030704700C00C403B
:101E200000C00F4000B583B0019001F005F90198A2
:101E300003B05DF804FB00BF38B5044600254FF041
:101E4000FF330D4925721030C4E9003501F0F8F870
:101E50000120E5612084204684F82250E562256552
:101E6000C4E90955C4E90C55C4E90E55C4E9105537
:101E7000C4E9125538BD00BF383C002010B50446F7
:101E800001F0FAF8E36C23B104F14401032208469F
:101E90009847E36B23B104F13401032208469847C5
:101EA000E36A23B104F1240103220846984704F1B0
:101EB000100001F0DDF8204610BD00BF43690A4A5A
:101EC00003EB011010B4037A084C02EB0313D3E9BF
:101ED00001321460C2681A6003690BB142691A606A
:101EE0005DF8044B704700BF9030002061F801009E
:101EF0004369027E03EB021292F808C08C451CD0A5
:101F00001A7AFF2A19D0914210B5044616D01A7ECB
:101F1000FF2A06D00121D3E9002312681A4201D119
:101F2000217610BD064B0522204603EB0C135B689F
:101F30001A60FFF7C3FF2176F3E770470021EAE755
:101F40009030002043690A4A03EB011010B490F866
:101F50002830084C02EB0313D3E901321460C26A43
:101F60001A60036B0BB1426B1A605DF8044B70474B
:101F70009030002061F801004369427E03EB0212B9
:101F800092F828C08C451ED093F82820FF2A1AD03A
:101F9000914210B5044617D093F83820FF2A06D096
:101FA0000121D3E9002312681A4201D1617610BDE4
:101FB000064B0522204603EB0C135B681A60FFF703
:101FC000C1FF6176F3E770470021EAE79030002017
:101FD000164942698B6B23F47C0343F4802370B56C
:101FE0008B630446124DD2E900130A681A43036951
:101FF0000A60022200211A610E4A19619A640122C4
:102000005A629D624FF43035DD624FF001159E6CCF
:102010001E6519629D651A61017EFFF74FFF617EA3
:102020002046BDE87040FFF78DBF00BF00C00F40E5
:10203000B80B05053B372819314B40F6617210B5D6
:10204000C3F8202140F2044401F01EF82D4A2E4925
:10205000D2F880302D4843F00303C2F880302C4B77
:10206000C1F8604102681A4203D1D1F8A8319A0739
:102070001BD0254A4FF00041244B5963D2F8403120
:1020800043F00203C2F84031D2F840319B07FBD441
:102090004FF400304FF0E0211C4B4FF00042C1F8EC
:1020A0008C0219209A6300F0EBFF184A4FF0804031
:1020B000154C002190630A20164B11604FF460729A
:1020C000C4F8A801184600F0ABFF4FF480020346A5
:1020D0004FF4810040F243111860C4F858311A647B
:1020E0000D4B0E4AC4F84811C3F804224FF0E02209
:1020F0004FF400310123C2F80C11C4F8403110BD77
:1021000000800D4000C00F4000002E4000900D40A8
:10211000001C1E0000000020006C00201957010068
:1021200008B50E4B1B6E9B0700D4FBBE72B60C4B62
:1021300000200C4AC3F8400103F160430A49A3F5AB
:102140005F2311649D46BFF34F8F4FF40013074880
:10215000074ADB6902609B68984700BF00441F4044
:1021600000002E4000C00A40030020000080202014
:10217000000012EB104BA020104AD96E41F4403100
:1021800010B4D96640F23764D96E41F44071D96613
:1021900054649064936C1B06FCD4094A40F2376186
:1021A000A02351649364936C13F08003FBD1054A20
:1021B00013705DF8044B704700C00F4000400C40A6
:1021C00000800C403AC60020204B002030B4C3E908
:1021D0002000C3E92200C3E92400C3E92600C3F8B4
:1021E000A800BFF34F8F4FF0E0231949194AC3F8F5
:1021F000701FC3F8702FBFF34F8FBFF36F8F164B55
:102200000146164C01229D6804F6DC749D6018633B
:10221000134B44F81C0C184602330088A34212FAF0
:1022200080F21144F7D192B20C4B42EA0142C3F85A
:10223000DC2FBFF34F8F4FF0E023094AC3F8682F1C
:10224000BFF34F8FBFF36F8F30BC704700FF272065
:1022500080FF2720A0FF272000800F4000F02720CC
:10226000C0FF2720B24BD3F880200B2A2DE9F0477E
:102270000D461BD14FF0FF30AE49AF4BAF4E01F1D1
:10228000040C5040202400F00102013C03FB02F248
:1022900082EA5000F7D1B44502D04A686146EEE7C1
:1022A000DFF88C82D8F8A830984279D02B681722B2
:1022B000A34928465B689847284600F0EDFE2B6846
:1022C0004822A0495B6828469847284600F0E4FE6B
:1022D0002B6849229C495B6828469847284600F0AD
:1022E000DBFE2B68242299495B68284698472846DC
:1022F00000F0D2FE2B68472295495B682846984734
:10230000284600F0C9FE2B683F2292495B682846A8
:102310009847284600F0C0FE8F4B9C68A2070DD559
:102320001A6B8E4B9A422B6800F0748140228C49C4
:102330005B6828469847284600F0AEFE670700F124
:102340005F81260700F15281E00600F14581A10678
:1023500000F13881620600F12B81230600F1DD8057
:1023600014F4807440F0AD80714BD3F8C06096B126
:10237000D3F8DC700122C0337A4819460233098849
:10238000834212FA81F21444F7D193B243EA044330
:102390009F4200F07C81FFF717FF0120BDE8F08726
:1023A0002B680C22704928465B689847284600F045
:1023B00073FE2A68D8F8A49028466C4BD2F804A083
:1023C000A3FB09276A497F09A3FB072326225E098D
:1023D000C8F8A460D04767490A222846A1FB063105
:1023E0002346090901EB4101A6EBC10100F030FED3
:1023F0002B68C6EB061601225B6828465E499847A3
:102400002346A7EB86010A222846C7EB071700F0F0
:102410001FFE2B68012258495B68284698472346CF
:10242000A9EB87010A22284600F012FE284600F098
:1024300033FE2B68242251495B682846984723467F
:102440001022D8F89810284600F002FE284600F026
:1024500023FED8F88860002E40F0DF80344ED6F896
:102460008C40002C40F0FA802B68222244492846F8
:102470005B6898472E4B0221284693ED280AB7EE59
:10248000C00A00F005FE2B6805223E495B6828461D
:1024900098472B681D223C495B68284698473B4A71
:1024A0003B48002311680A22A0FB01012846890C41
:1024B00000F0CEFD2B68042236495B682846984719
:1024C0002AE72B682922344928465B689847284622
:1024D00000F0E2FD2049286821228B6844682846E4
:1024E00023F480738B602D49A047284600F0D4FD6B
:1024F0002B6842222A495B6828469847284600F004
:10250000CBFD284A284B07211964936B43F0400305
:102510009363BFF34F8F30BFFDE72B682122234920
:1025200028465B689847284600F0B6FD18E700BFCC
:1025300000FF272080FF27202083B8EDA8FF272059
:10254000EC45002004460020504600209C46002018
:10255000C44600200C47002000800F40F100AD0B66
:1025600098470020DCFF2720D840002089888888F1
:10257000E8400020ABAAAAAA801C0020104100203D
:1025800098450020BC450020C4450020E04F0020B5
:1025900083DE1B43E4450020CC480020F84800209F
:1025A0001C49002000400D4000C00A40A8480020FF
:1025B0002B6821229C4928465B689847284600F0F2
:1025C0006BFDCAE62B682922984928465B68984724
:1025D000284600F061FDBDE62B6826229449284676
:1025E0005B689847284600F057FDB0E62B682A2222
:1025F000904928465B689847284600F04DFDA3E6C1
:102600002B6827228C4928465B689847284600F0AB
:1026100043FD96E6482289498AE62B6808228849C4
:1026200028465B68984723461022D8F88810284629
:1026300000F00EFD284600F02FFDF40769D4B00726
:1026400000F15381310700F14481F20600F15D8110
:10265000B30667D52B682A227A495DE02B680822E9
:10266000794928465B68984700231022D6F88C10D9
:10267000284600F0EDFC284600F00EFDA00767D4C8
:1026800061007FF5F1AE2B681B22704963E00124E5
:10269000DFF8F4A1DFF8F491DFF8D48105E001342C
:1026A000072C3FF478AED8F8C060631E012707FA04
:1026B00003F23242F3D009EB83062B680E22514617
:1026C0005B68284698472146284600F0E9FC2B68BD
:1026D00005225F495B6828469847716800230A22F3
:1026E000284600F0B5FC2B6804225A495B6828464E
:1026F0009847716800231022284600F0A9FC2B6837
:102700003A4655495B6828469847284600F0C4FC7D
:10271000C5E72B68282251495B6828469847284618
:1027200000F0BAFC37063CD4F4051BD4B00500F128
:10273000D880710500F1D180320500F1E280F30408
:1027400000F1DB80B70416D52B68312244490CE038
:102750002B682622434928465B689847284600F0A4
:102760009BFC81E62B6820223F495B6828469847FE
:10277000284600F091FC340440D4F0032ED4B10379
:1027800000F1B78072034BD4330300F1C680F70128
:1027900000F1BF80B4017FF561AE2B681B22334985
:1027A0001FE02B682122324C284632495B6898474B
:1027B00010220023D4F89010284600F049FCD4F8E9
:1027C00090201F2A64D92C4B9A4203D320339A427B
:1027D000C0F0A780284600F05FFCA5E72B68232205
:1027E00026495B682846224E9847284600F054FC4C
:1027F000D6F88C40002C3FF437AE2FE72B6821220F
:102800001F4928465B689847194900231022D1F8D0
:102810009410284600F01CFC284600F03DFCACE774
:102820002B6828221749DCE78448002058480020FC
:102830003048002004480020DC4700204C4700209E
:1028400038410020E8410020484500207C45002018
:102850007049002078490020B01800204441002031
:102860000C44002054450020FC4200202C45002050
:1028700000FF27201442002080C60020644400206E
:1028800040440020BC44002060490020C0FF2720B5
:102890002B681E22264928465B689847D4F8981072
:1028A00000231022284600F0D3FB2B683E2221494A
:1028B0005B6828469847D4F89810002310222846D1
:1028C00000F0C6FB2B681D221B495B682846984711
:1028D00080E72B68292219491EE72B6844221849F2
:1028E00043E72B682C2217493FE72B682122164922
:1028F00012E72B683222154973E72B6833221449FB
:1029000033E72B683F2213492FE72B682522124912
:1029100002E72B682822114963E72B681622104929
:102920005FE72B6841220F4928465B68984751E7CB
:102930003842002058420020984200209441002054
:102940005043002020430020704100208844002094
:10295000D843002098430020C041002000450020BB
:10296000E8440020B8420020124BD3F880300B2BF3
:102970001ED14FF0FF32104830B5104D104C01E021
:102980006B68754605F1040E5A40202102F00103E0
:10299000013900FB03F383EA5202F7D1A645EFD1D8
:1029A000044BD3F8A800801AB0FA80F0400930BD7B
:1029B0000020704700FF27202083B8ED80FF2720EC
:1029C000A8FF2720704700BF704700BF704700BFB7
:1029D00000BF704710B44FF0E023002110243148AD
:1029E000C3F8941DC3F89C4D1124C3F8A00D2E48C4
:1029F000C3F89C4D1224C3F8A00D2C48C3F89C4D7D
:102A00002B4AC3F8A00D2B4C42F015022A48C3F8FC
:102A10009C4DC3F8A00D294C2948C3F89C4DC3F820
:102A2000A00D284CC3F89C2D2748284AC3F8A04D78
:102A3000C3F89C0DC3F8A02D02F5A022244C0C3243
:102A40002448C3F89C4DC3F8A02D234AC3F89C0D1D
:102A5000224CC3F8A02D02F14062C3F89C4D2048DF
:102A6000C3F8A02D0C32C3F89C0DC3F8A02D00BFF5
:102A700000BF00BF00BF00BF0122C3F8942DBFF309
:102A80004F8FBFF36F8FC3F8501FBFF34F8FBFF34C
:102A90006F8FD3F8142D5DF8044B42F44032C3F825
:102AA000142D70473F000010250008070900100092
:102AB00080C600201300200021000207140000201F
:102AC00025000813090000101600202027000B1312
:102AD00017000040180000602F000B07190000705D
:102AE0001A000080F0B5B84B1822B84E0120B84F3C
:102AF00083B0C3F85C62B749C3F86072B64DC3F8DF
:102B00006462A6F53046B54CC3F86862C3F86C52EF
:102B1000C3F87052C3F87452C3F8785248F20C7577
:102B2000DA661A675A679A67DA67C3F88020C3F8CB
:102B30008420C3F88820C1F82C03A94AC1F83003C7
:102B4000C1F83403C1F83803C1F83C03C1F850039D
:102B5000A169A44B0A40A448A4491343A44AA36111
:102B6000D4F8843043F00C03C4F884304FF0FF34C1
:102B7000036843F00203036003682B404FF40055E1
:102B80001A439C4B026044608A689B4C13409B4AEA
:102B900043F000538360C36823F07803C360036A83
:102BA000134023430362036A1340954A2343954C21
:102BB00043628262C2620022D1F8B83023F03F0340
:102BC00043F00103C0F8B830D1F8BC308E4923F08F
:102BD0003F0343F00103C0F8BC3040F205630261DB
:102BE00005660467C0F88030456644670224C0F873
:102BF0008430036823F0020303608161834B8449BE
:102C0000C46143F8042B8B42FBD1774A136843F02D
:102C100001031360136813F00103FBD17A4802210A
:102C200040F2F564906140F29940D16140F2664112
:102C3000C2F8004242F20144C2F810127549C2F8CB
:102C40002002C2F8301240F235417348C2F83442D3
:102C5000C2F84012714CC2F8500242F20120704991
:102C6000C2F854120121C2F86042C2F864025E4800
:102C7000C2F8A030C2F8A430C2F8B0104369DA0735
:102C8000FCD5012300244FF4803257494361C0F83A
:102C9000A040C0F8A420C0F8B0304B69DB07FCD5D9
:102CA000012300244FF400304F4A4B61C1F8A0408B
:102CB000C1F8A400C1F8B0305369DF07FCD5012387
:102CC0000024584848495361C2F8A040C2F8A40003
:102CD000C2F8B0304B69DE07FCD5D1F8003145F6BB
:102CE0000D5221209BB24861934265D100244FF4DC
:102CF000802201233C48C1F8A040C1F8A420C1F8BB
:102D0000B0304369DD07FCD501234FF400040021F6
:102D1000354A4361C0F8A040C0F8A410C0F8B030F4
:102D20005369DC07FCD501234FF400044FF48030D5
:102D30002D495361C2F8A040C2F8A400C2F8B030D7
:102D40004B69D807FCD501234FF400044FF4003041
:102D5000254A4B61C1F8A040C1F8A400C1F8B030C9
:102D60005369D907FCD501234FF400042D481E49AF
:102D70005361C2F8A040C2F8A400C2F8B0304B6959
:102D8000DA07FCD5D1F8003145F60D5221209BB26F
:102D90004861934250D008254FF400042249002096
:102DA000224B234A009015705A1A012321482244CD
:102DB00000F032F903B0F0BD1E4B0022C3E900223F
:102DC000C3E9022203B0F0BD00801F40F9B001004A
:102DD000F910010000841F40F970010000C00F408D
:102DE000FFFCFF1F000300A000402A4000802A4093
:102DF0001200FFFFFF37F7004000008000FFF07C6B
:102E0000FF000F8363000200F05AF05A00422A408C
:102E100000432A409F041830EB06180A3806180AA7
:102E2000063201260400030000000070000000705C
:102E30003CC600204CB600204FF400044FF4802222
:102E400001230848C1F8A040C1F8A420C1F8B0305F
:102E50004369DB07FCD5012310254FF080744361E3
:102E60009CE700BF00402A40F0B4154A40274FF4C9
:102E700080314FF480564FF400554FF4404443F2F4
:102E80004200136913F0020F0ED113F4005F0FD04C
:102E900013F4805F0ED0002BF3DA13F4803F0BD1D4
:102EA0005B060BD5F0BC7047946151619061E8E717
:102EB0005561E6E75661E4E79161E2E75761E0E7D3
:102EC00000800D403F4A03203F49F3EE095AD2F8F3
:102ED00080304FF0000C9FED3D6A23F001039FED21
:102EE0003C5A30B4C2F88030C2F89000D1F8E010FB
:102EF000384DCBB2384C39482B6007EE903A0B0D69
:102F0000C1F30B21F8EEE77A06EE903A07EE101ABD
:102F1000334BB8EEC77A2160F8EEE66A314937EEF6
:102F2000C66A37EEC55A76EEC76A77EEE57A26EEC0
:102F3000266AC3ED006A25EE265AD2F8803067EE85
:102F4000A64AC0ED007AC6EE275A274885EE276AC2
:102F5000C4EEA76A75EE875AFCEEE55A36EE076AAC
:102F600015EE904ABCEEC66A43EA045376EE877AC1
:102F7000C2F8803016EE103AD2F89041FCEEE77AB3
:102F800001EA0341214317EE903AC2F89011C3F3CE
:102F90000B03D2F890110B431449C2F89031D2F8C8
:102FA000803043F00203C2F88030114B80F840C0FB
:102FB000C1F840314FF0E023012230BCC3F80821B2
:102FC000704700BF00810D4000441F400000AA422E
:102FD0000000B442A0C300209CC30020A4C3002072
:102FE000B0C300200000FF0F00E400E0006C0020F0
:102FF000D5770100F8B500BFF8BC08BC9E46704705
:103000005FF800F09D5E01005FF800F0998201001A
:103010005FF800F0A5AD01005FF800F02D69010038
:103020005FF800F075EC01005FF800F089460000E1
:103030005FF800F0C5ED01005FF800F0853F00008B
:103040005FF800F0E58101005FF800F0E95500004D
:103050005FF800F0058401005FF800F05DB2010048
:103060005FF800F00DCA01005FF800F0856D010007
:103070005FF800F0218201005FF800F06579000040
:103080005FF800F0F59601005FF800F0617901004B
:103090005FF800F0198401005FF800F08D830100F3
:1030A0005FF800F0758301000501000009060000CB
:1030B000C108000001180000E52500009D3D00004A
:1030C000913E0000093F0000B94000002941000086
:1030D000E9410000D577000085780000F179000013
:1030E000CDA20000D5C600001DC8000059C80000D0
:1030F000655401004D6501009D650100A1A6010018
:10310000A1A701007DAC0100F5AC01000DAF0100ED
:1031100014801F4018801F401C801F4020801F40CB
:1031200024801F4028801F402C801F4030801F407B
:1031300034801F4038801F403C801F4040801F402B
:103140007C801F4080801F4084801F4088801F40FB
:103150003C811F4040811F4044811F4048811F40E7
:103160004C811F4050811F4054811F4058811F4097
:103170005C811F4060811F4064811F4068811F4047
:103180006C811F4070811F4074811F4078811F40F7
:103190007C811F4080811F4084811F4088811F40A7
:1031A0008C811F4090811F4094811F4098811F4057
:1031B0009C811F40A0811F40A4811F40A8811F4007
:1031C000AC811F40B0811F40B4811F40B8811F40B7
:1031D000FC801F4000811F4004811F4008811F4068
:1031E0000C811F4010811F4014811F4018811F4017
:1031F0001C811F4020811F4024811F4028811F40C7
:103200002C811F4030811F4034811F4038811F4076
:103210007C811F4080811F4084811F4088811F4026
:103220008C811F4090811F4094811F4098811F40D6
:103230009C811F40A0811F40A4811F40A8811F4086
:10324000AC811F40B0811F40B4811F40B8811F4036
:10325000483C002008300000583C00202C30000082
:103260006C3C00203A3000007C3C00203B300000E9
:103270008C3C00203C3000009C3C00203D30000095
:10328000AC3C002003350000BC3C002000380000AE
:10329000C83C002001380000D43C00200238000067
:1032A000E03C002003380000EC3C00200438000023
:1032B000FC3C0020053800000C3D002006380000D2
:1032C0001C3D0020073800002C3D0020083800007D
:1032D0003C3D0020093800004C3D00200A38000029
:1032E0005C3D00200B3800006C3D00200C380000D5
:1032F0007C3D00200D3800008C3D00200E38000081
:103300009C3D00200F380000AC3D0020103800002C
:10331000B83D002011380000C43D002012380000E4
:10332000D03D002013380000DC3D002014380000A0
:10333000E83D002015380000F43D00202038000052
:10334000043E002021380000143E002024380000F4
:10335000203E002001420000303E002002420000DA
:10336000403E002000430000503E00204047000047
:10337000643E002001500000743E00201F500000F9
:10338000803E00203D500000983E00200156000085
:10339000A83E002002560000B83E00200356000060
:1033A000C83E002004560000D83E0020055600000C
:1033B000E83E002006560000F83E0020805600003F
:1033C000043F002081560000103F0020825600007C
:1033D0001C3F002083560000283F00208456000038
:1033E000343F002085560000403F002086560000F4
:1033F0004C3F002087560000583F00200C4600003C
:10340000683F002002460000783F0020034600008D
:10341000883F002004460000983F00200546000039
:10342000A83F002000440000BC3F002001440000F1
:10343000D03F002002440000E43F0020034400008D
:10344000F83F0020044400000C4000200544000028
:1034500020400020064400003440002007440000C3
:10346000484000200844000060400020094400005B
:10347000744000200A440000884000200B440000F3
:103480009C4000200C440000B04000200D4400008F
:10349000C44000200E4400006400000014811F405E
:1034A0000400000028841F400100000004831F4026
:1034B0003830010064000000B0811F4002000000AD
:1034C00028841F4002000000A0831F403830010004
:1034D00064000000F4801F400400000028841F40A6
:1034E00000000000E4821F40383001006500000049
:1034F00018811F400400000020841F4001000000CC
:1035000008831F403800000065000000B4811F40A0
:103510000200000020841F4002000000A4831F401E
:103520003800000065000000F8801F400400000023
:1035300020841F4000000000E8821F403800000087
:10354000660000000C811F400400000024841F401E
:1035500000000000FC821F403830010066000000BF
:10356000AC811F400200000024841F4001000000C5
:103570009C831F40383001006700000010811F400D
:1035800004000000000000000000000000831F4055
:103590003800000067000000B8811F4002000000F2
:1035A0000000000000000000A8831F403800000059
:1035B0000200000038811F400400000000841F400A
:1035C0000000000028831F403800000002000000B7
:1035D000E8801F400400000000841F40010000003C
:1035E000D8821F40380000000300000034811F40D3
:1035F0000400000004841F400000000024831F40DA
:103600003800000003000000E4801F4004000000B8
:1036100004841F4001000000D4821F4038000000D5
:103620000400000030811F400400000008841F4097
:103630000000000020831F4038000000040000004C
:10364000E0801F400400000008841F4001000000CB
:10365000D0821F4038000000050000002C811F4070
:10366000040000000C841F40000000001C831F4069
:103670003800000005000000DC801F40040000004E
:103680000C841F4001000000CC821F403800000065
:103690000600000028811F400400000010841F4025
:1036A0000000000018831F403800000006000000E2
:1036B000D8801F400400000010841F40010000005B
:1036C00008831F40380000000700000024811F40CD
:1036D0000400000014841F400000000014831F40F9
:1036E0003800000007000000D4801F4004000000E4
:1036F00014841F4001000000C4821F4038000000F5
:103700000800000020811F400400000018841F40B2
:103710000000000010831F40380000000800000077
:10372000D0801F400400000018841F4001000000EA
:10373000C0821F4038000000090000001C811F40AB
:10374000040000001C841F40000000000C831F4088
:103750003800000009000000CC801F400400000079
:103760001C841F4001000000BC821F403800000084
:1037700080C00F400000000319000000100000008E
:10378000E8841F4001000000FF000000FF0000006F
:103790000000000000000000180000001000000001
:1037A000E4841F4001000000FF000000FF00000053
:1037B00000000000000000001F000000595401003C
:1037C00070C00F40000C000011000000110000004C
:1037D000E0841F40020000002C00000012000000E6
:1037E000E0841F40010000001000000011000000F4
:1037F000DC841F40020000002D00000012000000C9
:10380000DC841F40010000001E0000004D54010038
:1038100070C00F40C0000000120000001300000044
:10382000D0841F4001000000FF000000FF000000E6
:103830000000000000000000130000001300000062
:10384000CC841F4001000000FF000000FF000000CA
:1038500000000000000000001C00000041540100B6
:10386000160355005300420020004300750073000A
:1038700074006F006D0000001803540065006500BF
:103880006E00730079006400750069006E006F00BF
:10389000040309040902AD00050100C032080B0051
:1038A00002020201000904000001020201000524D5
:1038B000001001052401010104240206052406006C
:1038C000010705810310001009040100020A00002D
:1038D00000070502024000000705820240000008C0
:1038E0000B020202020100090402000102020100AF
:1038F0000524001001052401010104240206052409
:103900000602030705830310004009040300020AAE
:103910000000000705040240000007058402400083
:103920000009040400020300000009211101000144
:10393000221E0007058503FF030107050603FF0399
:10394000010000000902AD00050100C032080B00B3
:103950000202020100090400000102020100052424
:1039600000100105240101010424020605240600BB
:10397000010705810310000509040100020A000087
:10398000000705020200020007058202000200088B
:103990000B020202020100090402000102020100FE
:1039A0000524001001052401010104240206052458
:1039B0000602030705830310000509040300020A39
:1039C000000000070504020002000705840200024F
:1039D0000009040400020300000009211101000194
:1039E000221E0007058503FF030107050603FF03E9
:1039F000010000000A060002EF0201400100000081
:103A000000000000000000000000000000000000B6
:103A100000000000000000000000000000000000A6
:103A2000F8B54FF084439D695A6915400DD0254F74
:103A300001269D6195FAA5F4B4FA84F457F8243070
:103A400006FA04F49847A543F4D11F4B9D695A69BF
:103A500015400DD01D4F01269D6195FAA5F4B4FACD
:103A600084F457F8243006FA04F49847A543F4D1B7
:103A7000174B9D695A6915400DD0164F01269D615F
:103A800095FAA5F4B4FA84F457F8243006FA04F44D
:103A90009847A543F4D1104B9D695A6915400DD044
:103AA0000E4F01269D6195FAA5F4B4FA84F457F8F7
:103AB000243006FA04F49847A543F4D1BFF34F8F9E
:103AC000F8BD00BFF465002000400042746600208D
:103AD00000800042F466002000C0004274670020AD
:103AE0000548064B1B1AD90F01EBA301491002D060
:103AF000034B03B118477047C06E0020C06E002012
:103B00000000000008B5054B1BB105490548AFF39F
:103B10000080BDE80840FFF7E3BF00BF00000000E1
:103B200008C300200004036090F81CC04160BCF191
:103B3000020FC26001D18368184716F0BDBA00BFFA
:103B4000F0B4046840F201251E462561A3B121B3FB
:103B500011F8015B013B6566256FAF0707D4154679
:103B6000013E676F1AB105F8017B2A460468656952
:103B7000ED07F1D5002BEAD16EB10368196F890703
:103B8000FAD41146013E5B6F002AF5D001F8013BE3
:103B90000A46002EF1D1F0BC704790F83C50D9E7AE
:103BA000324B334930B5D3E911542079C8771A6CB8
:103BB00095F804C081F81CC0087752B1B2F5004FE7
:103BC00023D32C4911442A4A1964D07682F81BC0A9
:103BD00030BD19680F24D86C8C6540F20134CA617D
:103BE0000C614FF47C544C6103210468246883F811
:103BF0003D10214B9C4226D1037F4260022BC260C4
:103C000026D18368BDE8304018472D68E98B090448
:103C100022D492B2EA832168EC8BA4B2EC82CC8BE2
:103C2000240405D5CC8BC2F3080204F47E4422435D
:103C3000CA83CA8B92B2CA8200210D4A1964D07617
:103C400082F81BC030BD23461146BDE830401847FE
:103C5000BDE8304016F030BAE98BC2F3080E92B2DC
:103C600001F47E4141EA0E01E983D4E7A0A80020D7
:103C700000800E400180FFFF29010000324B3349D4
:103C800030B5D3E911542079C8771A6C95F804C07F
:103C900081F81CC0087752B1B2F5004F23D32C49EC
:103CA00011442A4A1964D07682F81BC030BD1968C5
:103CB0000F24D86C8C6540F20134CA610C614FF45A
:103CC0007C544C6103210468246883F83D10214B27
:103CD0009C4226D1037F4260022BC26026D18368BA
:103CE000BDE8304018472D68E98B090422D492B210
:103CF000EA832168EC8BA4B2EC82CC8B240405D53A
:103D0000CC8BC2F3080204F47E442243CA83CA8BDC
:103D100092B2CA8200210D4A1964D07682F81BC083
:103D200030BD23461146BDE830401847BDE830405D
:103D300016F0C2B9E98BC2F3080E92B201F47E41CB
:103D400041EA0E01E983D4E750A8002000800E402C
:103D50000180FFFF290100000023C0E90012C0E933
:103D60000233C0E90433C0E90633C0E90833C0E9CF
:103D70000A33C0E90C3383638387C0E91033C0E999
:103D80001233704743682DE9F04FD3E90041814D6C
:103D90004FF0B80A22684FF0020822EA01027E4979
:103DA0002260AA6911407D4A0A43AA6190F810E096
:103DB0007B4A03EB0E0603EB8E0E317C02EB011106
:103DC0008968C1F800A090F811C003EB0C050CF154
:103DD0000A0C95F8241002EB01118968C1F800A0C3
:103DE000817C03EB010903EB810199F838B002EB08
:103DF0000B1BDBF808B0CBF800A0D4F800A05F687C
:103E00004AEA070AC4F800A0347CDEF814E002EBAA
:103E100004146468C4F800E095F8244053F82CC0FA
:103E200002EB04146468C4F800C0C96B99F8384008
:103E300002EB0412526811609A6C99F844101160F8
:103E40001A6A317F5B6B116095F830201A600F227F
:103E50000368C3F810809A65C27C002A31D072B61C
:103E6000C37CDC0708D54FF0E0214469D1F88021FC
:103E700022408262C1F88021990708D54FF0E021E5
:103E80008469D1F884212240C262C1F884215A0792
:103E900008D54FF0E021C469D1F88821224002639F
:103EA000C1F888211F0708D54FF0E021046AD1F836
:103EB0008C2122404263C1F88C21DE0655D462B6C3
:103EC0000368384C8268A24259D0324A84609269B1
:103ED0003549C2F30116C2F38262344D51F82610FF
:103EE0000132B1FBF2F2AA4231D80022C2600024B2
:103EF00003211C610724596201211A641C6619619F
:103F0000C37C13B3DD0704D5816A4FF0E022C2F809
:103F100000119C0704D5C16A4FF0E022C2F80411D9
:103F2000590704D5016B4FF0E022C2F808111A07B7
:103F300004D5416B4FF0E022C2F80C11DB0604D52A
:103F4000826B4FF0E023C3F81021BDE8F08F1849D1
:103F5000A1FB0251090DB2FBF1F2A24288BF01316F
:103F6000B1F5817F0DD3134AC0E74FF0E022416ADB
:103F7000D2F890310B408363C2F890319FE7C2685A
:103F8000B5E70229B1D902394C08220242EA0442BB
:103F90000A43ABE700C00F40CFFFFFE3100000086B
:103FA0009030002000093D00B82A0020FF083D00A5
:103FB00083DE1B43FF7F7F000BB1FFF7C1BD70475E
:103FC0004368D3E900120968114200D1704710B567
:103FD00002680446002005211061227C1344187CED
:103FE00015F010FE627C63680521134493F82400E9
:103FF00015F008FE6368A27C05211344BDE810405B
:1040000093F8380015F0FEBD08B5084A084909487C
:10401000FFF7A2FE084A09490948FFF79DFE094A31
:1040200009490A48FFF798FE08BD00BF3025002067
:1040300000003A4050A80020C024002000C03940B1
:10404000A0A800205024002000403940F0A8002003
:1040500090F8A32090F8A200101A704790F8A230B0
:1040600090F8A3209A4205D95A1C034480F8A22054
:10407000987E70474FF0FF30704700BF70B5094C15
:10408000094D04F1200654F8043F294618461BB197
:104090001B681B68984718B9B442F4D1BFF34F8F1F
:1040A00070BD00BF78B6002050AD002070B5094C3F
:1040B000094D04F1200654F8043F294618461BB167
:1040C0001B681B68984718B9B442F4D1BFF34F8FEF
:1040D00070BD00BF98B6002064AD002070B5094CDB
:1040E000094D04F1200654F8043F294618461BB137
:1040F0001B681B68984718B9B442F4D1BFF34F8FBF
:1041000070BD00BFB8B6002078AD0020362921D898
:10411000124BC26803EB011370B4057C5E68A5B155
:104120000023194601E08D420FD9146801338C46F3
:104130000432B442D9B2F6D143686046D3E90021D3
:1041400070BC13680B43136070474FF0FF0C70BCDA
:10415000604670474FF0FF0C60467047903000207B
:10416000FF282DE9F0410FD0094C06460F4604F117
:104170000C0854F8045B31462846FFF7C7FFFF28B8
:10418000387002D14445F4D100252846BDE8F081BD
:10419000FC5F002036291AD8C36810B4104C027C8A
:1041A00004EB01114C68C2B1013A191DD2B201EB06
:1041B000820101E08B420CD01A680433A242F9D18B
:1041C000436801201B7C23605DF8044B704700208E
:1041D000704700205DF8044B70471046F4E700BFBD
:1041E0009030002001291AD0C1F1090CBCF1000F58
:1041F0000EDD0321427C12EA01030CD0002301E012
:10420000114208D001334900DBB2C9B26345F7DB84
:10421000FF23184670470A434274184670474FF010
:10422000080CE7E7032903D843680B44587C704720
:10423000FF20704701230246807C03FA01F101420E
:104240005FFA81FC01D00020704740EA0C0118465B
:1042500091747047836800B503F1200C86461A6894
:104260005AB18A4203F1040304D09C45F7D10020DF
:104270005DF804FB01205DF804FB9EF81320196033
:10428000002AF7D1DEF804200B49137AD2681033E4
:1042900041F82320DEF804100122084B91F808C0F1
:1042A00010460CF01F0103EB5C1302FA01F19B00B6
:1042B00019608EF81320DBE7006C002040380038CE
:1042C00030B411492024114B11480C611C61114C70
:1042D000114A4460114C124D846010240560046141
:1042E000C260104C1048C1E9004002F140000F4C80
:1042F000C032C1E902400E4C0E480F491C60DA6022
:1043000030BCC3E90101704764AD002078AD0020E6
:1043100050AD0020D01A0020103100607CB6002083
:1043200000C01A4000001B40EC1A00209CB6002080
:1043300000000242081B0020BCB60020002070478D
:10434000704700BF036D0BB101207047406D00380E
:1043500018BF0120704700BF704700BF10B504466A
:10436000806D18B11DF002FE0023A365236D2BB1F3
:1043700004F11800BDE810400CF016BE636D002B70
:10438000F6D110BD012BF0B5054695B03DD0022BFE
:1043900040F20A2001F104010CBF034600236846E5
:1043A0000CF01AFF129B002B38D05C20002617F06F
:1043B00085FC214B04AF0446C0E90036019B394619
:1043C000183040F80C3C1D4B40F8103C029B40F864
:1043D000083C9DF80C3000F8043C0CF0A3FD184B91
:1043E0004FF47A72A665A360164B6E602B6063680B
:1043F0002E730133AA602C616360134B384600931F
:104400000CF0D2FD284615B0F0BD40F20263043135
:1044100068460CF0E1FE129B002BC6D1139B002BCB
:10442000C3D14FF47A71074A04AF2B732A602B6112
:10443000C5E90131E1E700BF3429002090290020BF
:10444000AC27002068270020D425002010B50446A2
:10445000806D00B110BD4FF480701DF07FFDA06530
:10446000B0B10022236D02703BB101464FF480725F
:1044700018460CF0ADFFA06D10BD636D002BE9D0A8
:1044800001464FF48072184612F028F8A06D10BD56
:10449000014B1846A36510BD39C6002038B5056D1F
:1044A0006DB10BB1002038BD114628460EF08AFFD1
:1044B0000028F7D02846BDE838400FF025B9446DF4
:1044C000002CEFD0204611F00BFD0028EAD020464A
:1044D000BDE8384012F040BC8A79A2F150031B06B7
:1044E00022D402F26C72F0B54B7985B0046D0133C1
:1044F0000D798E784F78DBB209784CB12046019661
:104500000095CDE9027102210FF092F805B0F0BDDF
:10451000406D0028FAD001960095CDE90271022184
:1045200012F05EFB05B0F0BD0020704710B50446E8
:10453000006D80B1037813F0700F00D110BD002121
:104540000EF040FF606D0028F8D000220023BDE887
:10455000104011F0C5BC606D0028EFD090F83130EC
:1045600013F0500FEAD000220023BDE8104011F0F4
:10457000B7BC00BF036D10B50C4682B02BB30DF174
:10458000060201A918460EF0C3FA38B3BDF804308C
:10459000BDF8062053EA020120D0C2F3451C02F008
:1045A0001F00D20AC3F34311400084F801C0A27077
:1045B0005A0A013903F01F0302F5EA622070012054
:1045C00061712371A27102B010BD406D30B10DF167
:1045D000060201A911F02AFB0028D7D1002002B061
:1045E00010BD00BF036D10B50C4682B02BB30DF1AA
:1045F000060201A918460EF07BFA38B3BDF8043064
:10460000BDF8062053EA020120D0C2F3451C02F097
:104610001F00D20AC3F34311400084F801C0A27006
:104620005A0A013903F01F0302F5EA6220700120E3
:1046300061712371A27102B010BD406D30B10DF1F6
:10464000060201A911F0E0FA0028D7D1002002B03B
:1046500010BD00BF10B5D0F884448EB00A4644B1F6
:1046600000232146684600930EF010FC80B90EB07E
:1046700010BDD0F8881441B1234668460C9411F05F
:10468000EDFE50B900200EB010BD08460EB010BDB2
:1046900068460EF04FFE0EB010BD684612F05EF890
:1046A0000028EFD0E3E700BF70B5D0F884548EB097
:1046B00016465DB105F5896500230A466846294618
:1046C00000930EF061FB90B90EB070BDD0F8880475
:1046D0000028F9D000F589640A462B466846214631
:1046E0000C9511F03FFE48B900200EB070BD324667
:1046F000294668460EF028FD0EB070BD32462146B0
:10470000684612F07FF90028EED0DDE710B5D0F84A
:1047100084448EB00A464CB100200123214600900B
:1047200068460EF0B3FB80B90EB010BDD0F8881407
:1047300041B1012368460C9411F090FE50B900205D
:104740000EB010BD08460EB010BD68460EF04EF813
:104750000EB010BD684611F0A7FF0028EFD0E3E7C8
:1047600030B5D0F884448FB00A464CB100250123FF
:1047700004F58961684600950EF090FA0FB030BDDF
:10478000D0F888040028F9D000F589610123684633
:104790000C9412F0B9F90FB030BD00BF10B5D0F8CD
:1047A00084448EB00A463CB10023214668460093FB
:1047B0000EF06CFB0EB010BDD0F8881431B123465A
:1047C00068460C9411F04AFE0EB010BD08460EB0BB
:1047D00010BD00BF006990B10368154A1B69934280
:1047E00025D1036D63B1187810F0080007D0D8699F
:1047F0005B69C01A48BF6FF00040704718467047A9
:10480000436D002BFAD093F8310010F00800F6D079
:10481000186919685A69401A5B6862EB0303B0F1C2
:10482000004F73F10003EAD36FF000407047184760
:10483000F1130000036973B11A68084952698A428A
:1048400007D1186D08B10EF049BC586D18B111F0C0
:1048500031BB184610474FF0FF3070470D11000074
:10486000036963B11A68074992698A4208D1186DD1
:1048700008B10EF0D7BE586D08B112F03BB87047C2
:1048800018461047CD12000000B5006983B08DF8BE
:10489000071060B10368104ADB68934215D1036DBD
:1048A00043B101220DF1070118460EF067FF03B076
:1048B0005DF804FB406D0028F9D001220DF10701DD
:1048C00012F0BCFA03B05DF804FB01220DF1070100
:1048D000984703B05DF804FBF5120000036923B3A9
:1048E0001968134A10B58C6882B0944214D1186DBF
:1048F00048B101220DF107010EF01CFB90B19DF8AB
:10490000070002B010BD586D0028F8D001220DF14B
:10491000070111F0FFF9F1E701220DF10701184637
:10492000A047EBE74FF0FF30EBE74FF0FF30704769
:10493000A1110000036D13B1586900217047436D48
:1049400013B1D3E90001704718461946704700BFFC
:10495000036D13B1D86900217047436D13B1D3E9DA
:104960000401704718461946704700BFF0B595B06E
:1049700000224FF47A74244F1831054604A88DF8AC
:104980000C200097CDE90124CDE912220CF078FB30
:10499000129B002B2DD05C20002617F08FF9019B75
:1049A00004464660C36004A9029B183040F8083CE6
:1049B0009DF80C3000F8043C144B40F8183C144BA4
:1049C00040F8103C0CF0AEFA124B4FF47A72A7602C
:1049D0002B606368A66501336E602E73AA602C613C
:1049E00063600D4B04A800930CF0DEFA284615B066
:1049F000F0BD139B002BCED1064A2B732A602B618E
:104A0000C5E90134EDE700BFAC27002034290020C0
:104A10009029002068270020D4250020F8B50546FD
:104A200090F8D00408B90146F8BDD5F88434002BBD
:104A30004CD0DC69D5F89004013C002854D00368C0
:104A4000DB6B9847E0B1D5F8900478B303681B6C32
:104A50009847A8B9D5F8900440B3036801215B6C6E
:104A60009847074610B3D5F8840458BBD5F8886436
:104A700033466EB9D5F8900490B900200146D3E7CB
:104A8000D5F88404E8B9D5F88834002BF5D007466A
:104A9000184613F04BF806463FB1D5F8900428B1FC
:104AA000036800215B6C984700B1A41BD5F88434DF
:104AB000FBB19B794FF40071994089B2A1FB0401CD
:104AC000F8BD00270DF068F90646E5E7D5F888340B
:104AD000D5F89004B3B1D3F830440028AFD11846CC
:104AE00013F024F80646E0E718460DF055F906469F
:104AF000DBE7D5F88864002EBFD0D6F83C14A1FBC4
:104B00000401F8BD0028B8D01C4698E7036D13B126
:104B100018460EF0E3BA406D08B111F0CBB94FF072
:104B2000FF307047836C13B118460EF0D7BAC06CD3
:104B300008B111F0BFB94FF0FF307047036D33B1CA
:104B40001B7813F0700F14BF012000207047406DD8
:104B500030B190F8313013F0500F14BF0120002015
:104B6000704700BF90F8D03463B1D0F8843463B19B
:104B70009A794FF40070D9699040013980B2A0FB56
:104B800001017047184601467047D0F88804002894
:104B9000F9D0D0F83C14D0F83004A1FB00017047E4
:104BA000036D13B118460EF0C5B9406D08B111F090
:104BB000B1B84FF0FF307047836C00B583B063B17C
:104BC00001220DF1070118460EF0B4F901280CD1AD
:104BD0009DF8070003B05DF804FBC06C28B101220A
:104BE0000DF1070111F096F8F0E74FF0FF30F1E713
:104BF0002DE9F043D0F890548DB04DB198462B6814
:104C000004462846DB699847B0F5405F064604D85D
:104C1000002630460DB0BDE8F0834FF400701DF063
:104C20009DF907460028F3D00DF10409B6F1806F15
:104C300002464346294648462ED912F005FB064651
:104C400038461DF093F9002EE2D02B682846271D28
:104C50001B6A984794F8C034FF2B21D0D4F8C43491
:104C600004F5946502932846D4F8C8340393B4F845
:104C7000C034ADF8043099E80E0010F089FF94F8C4
:104C8000B134C4F89054002BC3D1012329463846CF
:104C90001A460CF02FFABCE70CF02CFE0646CFE7C4
:104CA00004F2944594F8CC1428460FF081FC284671
:104CB000C4F890540EF072FF0028AAD10123D4F852
:104CC000901438461A460CF015FAA2E7036D13B19A
:104CD00018460EF0A7BC406D08B111F00BBE70472E
:104CE000836C13B118460EF09DBCC06C08B111F076
:104CF00001BE7047036D13B118460EF03FBD406D05
:104D000008B112F09BB87047836C13B118460EF0CF
:104D100035BDC06C08B112F091B8704700B5836C16
:104D200083B08DF8071043B101220DF10701184639
:104D30000EF024FD03B05DF804FBC06C0028F9D030
:104D400001220DF1070112F079F803B05DF804FBC0
:104D50008A79A2F150031B0622D402F26C72F0B5DC
:104D60004B7985B0046D01330D798E784F78DBB2C5
:104D700009784CB1204601960095CDE902710421D5
:104D80000EF056FC05B0F0BD406D0028FAD001963B
:104D90000095CDE90271042111F022FF05B0F0BDAC
:104DA00000207047836C53B1187810F008000DD0C4
:104DB000D8695B69C01A48BF6FF000407047C36C88
:104DC000A3B193F8310010F0080000D170471869C2
:104DD00019685A69401A5B6862EB0303B0F1004F2F
:104DE00073F10003F2D36FF0004070471846EDE70F
:104DF000036D53B1187810F008000DD0D8695B69C5
:104E0000C01A48BF6FF000407047436DA3B193F8DC
:104E1000310010F0080000D17047186919685A690C
:104E2000401A5B6862EB0303B0F1004F73F10003BB
:104E3000F2D36FF0004070471846EDE70369D3B135
:104E40000E4810B41C68E46884420FD1186D18B184
:104E50005DF8044B0EF092BC586D18B15DF8044B30
:104E600011F0ECBF00205DF8044B70471846234654
:104E70005DF8044B18470020704700BFF512000092
:104E800038B504460C4B806D236018B11DF06EF8E8
:104E90000023A365236D04F118054BB128460CF0DF
:104EA00083F8064B2846A3600CF07EF8204638BDF8
:104EB000636D002BF2D1F4E734290020D4250020C3
:104EC00038B504460E4B806D236018B11DF04EF8C6
:104ED0000023A365236D04F118056BB128460CF07F
:104EE00063F8084B2846A3600CF05EF820465C216E
:104EF00016F0E6FE204638BD636D002BEED1F0E7DC
:104F000034290020D425002070B5264B04460569BD
:104F10000360002D32D06E68013E6E6076BB2B6858
:104F2000214ADB6A934233D1A86D10B11DF01EF8FF
:104F3000AE652B6D43B305F118000CF035F825690B
:104F4000E5B12B68194A5B68934228D1184BA86DCC
:104F50002B6018B11DF00AF80023AB652B6D05F12D
:104F60001806C3B130460CF01FF8124B3046AB6048
:104F70000CF01AF85C21284616F0A2FE20461421F7
:104F800016F09EFE204670BD6B6D002BD3D1D6E788
:104F900028469847D3E76B6D002BE3D1E5E7284619
:104FA0009847EBE7682700205D090000C114000066
:104FB00034290020D425002030B4029C11469C46A0
:104FC00034B1012C1CD0022C0ED0002030BC704714
:104FD000056DF5B14FF0FF33934274EB0C04F4D33D
:104FE000284630BC0EF0EEB9026D0AB3D3695918E9
:104FF0004CF10003002BE8D1104630BC0EF0E2B9B2
:10500000026D62B1536959184CF10003002BDCD1D9
:10501000F2E7406D0028D8D030BC10F061BF406D81
:105020000028D2D0D0E900238A184CEB0303F3E721
:10503000406D0028C9D0D0E9042330BC8A184CEB5D
:10504000030310F04DBF00BF70B5244B0446056943
:105050000360002D32D06E68013E6E6076BB2B6817
:105060001F4ADB6A93422FD1A86D10B11CF07EFF5E
:10507000AE652B6D23B305F118000BF095FF256984
:10508000E5B12B68174A5B68934224D1164BA86D93
:105090002B6018B11CF06AFF0023AB652B6D05F186
:1050A0001806A3B130460BF07FFF104B3046AB60C3
:1050B0000BF07AFF5C21284616F002FE204670BDF8
:1050C0006B6D002BD7D1DAE728469847D7E76B6D91
:1050D000002BE7D1E9E728469847EFE7682700204B
:1050E0005D090000C114000034290020D4250020EF
:1050F000F0B5D0F8906485B00446002E42D090F808
:10510000D05490F8D13485B1FE2B63D094F8D204FA
:1051100036283DD93368694630469B6C984705462A
:10512000284684F8D05405B0F0BDFE2B26D090F868
:10513000D204362849D994F8C034271DFF2B2DD02E
:10514000D4F8C43404F59466D4F8C82401933046E6
:10515000B4F8C0340292ADF800306B460ECB10F0BC
:1051600017FD94F8B134C4F8906463B90123314653
:1051700038461A460BF0BEFF054604E01F4B9B68FD
:105180009B03D8D40025284684F8D05405B0F0BD40
:1051900014F026FD051E18BF0125F4E704F294461D
:1051A00094F8CC1430460FF003FA3046C4F89064FB
:1051B0000EF0F4FC0028E6D10123D4F89014384610
:1051C0001A460BF097FF0546DDE714F009FD0028AD
:1051D000B1D1D7E7336830465B6D9847421C034630
:1051E00094D00028CFD194F8D124FE2ACAD103212B
:1051F0002E201D4614F006FDC5E700BF00800042CA
:1052000018484FF0290C184A0023184910B4C0F868
:105210009424072280F8B1C44FF0FF0CC0F8A81402
:105220004FF47F41124CC0F8AC24124AA0F8D014BD
:10523000A0F89C3480F8B53480F8CC3480F8D2C41F
:105240000460C0F8A0240C490C4A5DF8044BC0F877
:105250008434C0F88834C0F8903480F8BC3419F035
:105260004FBB00BF7CA30020142A002000093D0092
:10527000B4290020202600205909000034600020B5
:1052800080207047704700BF0846114601F0BAB849
:1052900003680B4A5B6800B5934283B08DF8071032
:1052A00007D101210DF1070001F0ACF803B05DF862
:1052B00004FB01220DF10701984703B05DF804FBE0
:1052C00089180000124BA0F120029A421DD8002339
:1052D00030B4104C214602E00133202B11D051F89C
:1052E000042B002AF8D120F001010B4D10460A884A
:1052F00044F8231025F813204DF6107230BC0A80B4
:1053000070474FF0FF3030BC70474FF0FF307047B0
:10531000E0FF272004C5002084C5002070B5714E31
:105320000321714C714D304616F0DEFB00230A223A
:105330002968204616F066FD204616F027FD032159
:10534000301D16F0D1FB00230A226968204616F0B2
:1053500059FD204616F01AFD032106F1080016F04B
:10536000C3FB00230A22A968204616F04BFD204605
:1053700016F00CFD032106F10C0016F0B5FB00231E
:105380000A22E968204616F03DFD204616F0FEFC94
:10539000042106F1100016F0A7FB00230A22296958
:1053A000204616F02FFD204616F0F0FC052106F1F0
:1053B000180016F099FB002310226969204616F0A8
:1053C00021FD204616F0E2FC052106F1200016F032
:1053D0008BFB00231022A969204616F013FD2046FE
:1053E00016F0D4FC032106F1280016F07DFB002303
:1053F0000A22296A204616F005FD204616F0C6FC52
:10540000032106F12C0016F06FFB00230A22696AC3
:10541000204616F0F7FC204616F0B8FC032106F1F2
:10542000300016F061FB00230A22A96A204616F01C
:10543000E9FC204616F0AAFC032106F1340016F020
:1054400053FB00230A22E96A204616F0DBFC2046C3
:1054500016F09CFC032106F1380016F045FB0023F2
:105460000A22296B204616F0CDFC204616F08EFC51
:10547000032106F13C0016F037FB00230A22696B7A
:10548000204616F0BFFC204616F080FC042106F1F1
:10549000400016F029FB00230A22A96B204616F0D3
:1054A000B1FC204616F072FC042106F1480016F00B
:1054B0001BFB00230A22E96B204616F0A3FC2046C2
:1054C00016F064FC052106F1500016F00DFB296C66
:1054D00020460023102216F095FC2046BDE87040BF
:1054E00016F054BC08080020E44F0020B4C300208C
:1054F00007281DD8DFE800F0070A0D10131619045D
:105500000C4BD86A70470B4B18687047094B5868AA
:105510007047084B98687047064BD8687047054B32
:10552000186A7047034B586A7047024B986A704775
:1055300000207047B4C3002000F00101C0F3400315
:10554000C0F38002C0F3C00C0B44C0F340111344FD
:10555000C0F3001263441344C0F38012C0F3C010C0
:105560000B44134418447047008808B5030A462BBF
:1055700008D0BD2B0CD044F27073984206D10B4B6F
:10558000586908BD00F00703072B09D0002008BDAB
:10559000C0B2FFF7D1FF054B1B6C53F8200008BDCC
:1055A000C0F3C200BDE80840FFF7A2BFB4C30020AB
:1055B000028802F47F4C08B5BCF58E4F4FF0000313
:1055C0000B600ED002F47841B1F5404F28D0B1F510
:1055D000704F0DD002F47041B1F5504F1BD01846FA
:1055E00008BDC2F3C300FFF783FF01230B6008BDB2
:1055F000438802F03F02C3F30A0303EBC2235209BC
:1056000003D06FEAC3336FEAD333084A906904309A
:1056100000EB430008BD054B986940FA82F008BDD5
:10562000024B02F07F029869104408BDB4C3002009
:1056300038B50B4D09210B4C05F1580016F054FA02
:10564000204616F0A3FBFFF769FE05F16400042174
:1056500016F04AFA2046BDE8384016F097BB00BF66
:1056600008080020E44F002030B583B005460C4602
:10567000FFF77AFFF8B11C4B04461860A4F1200232
:105680001A4B9A4215D81A4900230A4602E0013300
:10569000202B0ED052F8040B0028F8D124F001047E
:1056A00014484DF61072258841F8234020F8135015
:1056B000228003B030BD01A92846FFF779FF18B159
:1056C0000D4A1060FFF7FEFD2B8803F47842B2F517
:1056D000704F07D003F46843B3F5684F02D0024B14
:1056E0001C60CBE70234FAE7E8C50020E0FF272082
:1056F00004C5002084C50020ECC500202DE9F04140
:10570000564DDFF87C81AF6937F8023CBE1E03F5C9
:1057100003532F339BB2012B02D9D8F80030ABB121
:105720002B6C68332B644E4B1B68002B00F093806E
:1057300098474C4C00252368C8F80050002B67D1CF
:10574000494C2068002843D1BDE8F081474AA7F1C1
:105750002201AE6112689661454A914213D8DFF882
:1057600024C126F00101624602E00133202B0AD059
:1057700052F8044B8C42F8D13E4A002032F81320F4
:105780004CF823000A803C4C2068002846D13B4C52
:1057900020680028C4D0A0F12002354B9A4214D8CA
:1057A000DFF8E0C020F001000023624602E0013390
:1057B000202B0AD052F8041B8142F8D12D4A002137
:1057C00032F813204CF82310028000232360A7E74F
:1057D000A0F12002264B9A4216D8DFF8A8C0002379
:1057E000624602E00133202B0ED052F8041B002940
:1057F000F8D120F001001F4A01884CF8230022F85C
:1058000013104DF61072028000232360BDE8F08172
:1058100039463046FFF728FF256091E7A0F12002C6
:10582000134B9A4214D8DFF85CC020F0010000232B
:10583000624602E00133202B0AD052F8041B884252
:10584000F8D10C4A002132F813204CF823100280C2
:10585000002323609BE7FFF7EBFE6AE7B4C3002059
:105860008CB3002020B6002018B6002000C5002010
:10587000E0FF272084C50020E8C50020ECC50020FB
:1058800008B6002004C5002072B63848C0F800D021
:105890003648016836480A6802604A6842608A6889
:1058A0008260CA68C2600A6902614A6942618A69A3
:1058B0008261CA69C261046245628662C762C0F8D9
:1058C0003080C0F83490C0F838A0C0F83CB0016413
:1058D00062B600B54FF0E0234022214CC3F8882285
:1058E0002368002B34D0022B04D115F065FD15F090
:1058F00063FDFAE7FFF702FF1A4B002219682260E6
:1059000000292CD01A605DF804CB72B617480168E4
:10591000174802680A6042684A6082688A60C26802
:10592000CA6002690A6142694A6182698A61C26920
:10593000CA61046A456A866AC76AD0F83080D0F8BE
:105940003490D0F838A0D0F83CB062B6E646704744
:10595000054B1A6822B15DF804EB1B689F4600BD39
:1059600014B600201CB6002020C3002000C5002073
:10597000B4C30020074A4FF0E0210748136810B471
:1059800001240460234440205DF8044B1360C1F8F7
:105990000802704710B6002014B600201848C0F85E
:1059A00000D01748016817480A6802604A684260D8
:1059B0008A688260CA68C2600A6902614A69426193
:1059C0008A698261CA69C261046245628662C7628D
:1059D000C0F83080C0F83490C0F838A0C0F83CB0AF
:1059E000016400B5044B01221A60044B02221A60C4
:1059F000FFF7C0FF00BD00BF04B6002008B60020BE
:105A000000C50020B4C300201848C0F800D01748D3
:105A1000016817480A6802604A6842608A688260C2
:105A2000CA68C2600A6902614A6942618A69826120
:105A3000CA69C261046245628662C762C0F830808A
:105A4000C0F83490C0F838A0C0F83CB0016400B58C
:105A5000044B01221A60044B03221A60FFF78AFFED
:105A600000BD00BF04B6002008B6002000C500201D
:105A7000B4C300201848C0F800D017480168174880
:105A80000A6802604A6842608A688260CA68C260C6
:105A90000A6902614A6942618A698261CA69C261AE
:105AA000046245628662C762C0F83080C0F83490F4
:105AB000C0F838A0C0F83CB0016400B5044B012226
:105AC0001A60044B04221A60FFF754FF00BD00BFA8
:105AD00004B6002008B6002000C50020B4C3002092
:105AE0001848C0F800D01748016817480A680260D3
:105AF0004A6842608A688260CA68C2600A69026154
:105B00004A6942618A698261CA69C2610462456206
:105B10008662C762C0F83080C0F83490C0F838A000
:105B2000C0F83CB0016400B5044B01221A60044B7C
:105B300005221A60FFF71EFF00BD00BF04B600205B
:105B400008B6002000C50020B4C300201848C0F8E3
:105B500000D01748016817480A6802604A68426026
:105B60008A688260CA68C2600A6902614A694261E1
:105B70008A698261CA69C261046245628662C762DB
:105B8000C0F83080C0F83490C0F838A0C0F83CB0FD
:105B9000016400B5044B01221A60044B06221A600E
:105BA000FFF7E8FE00BD00BF04B6002008B60020E5
:105BB00000C50020B4C300200F4B4DF610721968C9
:105BC0000B8823F00F039BB2934210D0A1F1200267
:105BD0000A4B9A420BD80A4B21F0010103F18000D5
:105BE00001E0984205D053F8042B8A42F9D10120F4
:105BF00070470020704700BFCCC20020E0FF272084
:105C000004C500200698A0F102001049086000B504
:105C1000FFF7D2FF60B10A4A01240A484FF0E021A1
:105C200013680460402023441360C1F8080200BDDB
:105C3000054B1A681AB15DF804EB1B689F4600BD5E
:105C400010B6002014B6002024C30020CCC20020CF
:105C500008B50378722B1FD06C2B0AD00378702BF9
:105C600010D14278632A0DD182785AB92E4B9869A7
:105C700008BD4378722BF1D18378002BEED12A4BEB
:105C8000586908BD732B20D14378702B1DD18378C0
:105C9000DBB9254B186C08BD83785BB14278312A9B
:105CA00005D1312B3DD0322B38D0302B33D04FF0B3
:105CB000FF3008BD4378303B092BF8D8DFE803F00C
:105CC0002825221F1C191613100D18491CF0BCFDA5
:105CD0000028ECD1144BD86908BD134B586B08BD94
:105CE000114B186B08BD104BD86A08BD0E4B986A53
:105CF00008BD0D4B586A08BD0B4B186A08BD0A4B0E
:105D0000D86808BD084B986808BD074B586808BD9F
:105D1000054B186808BD044B986B08BD024B186909
:105D200008BD014BD86B08BDB4C300207408002027
:105D3000404B012210B51A600C460378722B17D025
:105D40006C2B0BD00378702B24D14278632A21D19D
:105D50008278FAB9384B01209C6110BD4378722BD0
:105D6000F0D18378002BEDD1334B1046596110BD33
:105D7000837823B14178312919D0104610BD43787A
:105D8000303B092B19D8DFE803F02D4D4945413D43
:105D900039353129732B02D14378702B0FD0274925
:105DA0001CF052FD48B9244B0120DC6110BD312BA1
:105DB0003CD0322B0ED0302B08D0002010BD837881
:105DC000002BECD11C4B01201C6410BD1A4B10465B
:105DD0009C6310BD184B10461C6110BD164B012072
:105DE000596310BD144B0120196010BD124B0120E6
:105DF000196310BD104B0120D96210BD0E4B01205C
:105E0000996210BD0C4B0120596210BD0A4B012054
:105E1000196210BD084B0120D96010BD064B01204E
:105E2000996010BD044B0120596010BD024B104613
:105E3000DC6310BD1CB60020B4C300207408002031
:105E400038B54FF0E02211241C48C2F89C4D1C4983
:105E5000C2F8A00D01201B4B1B4A08601B4D1C49BA
:105E60001C4C1D489D60DC601A6158611B4A996199
:105E7000D96A914220D0DC6A19494FF0E02C1948C8
:105E8000D9620460D3F85811174A18481160D0211C
:105E9000C3F858014023164A164882F8461080225B
:105EA0000021CCF808311CF0E5FB802200211248CB
:105EB000BDE838401CF0DEBB0024DDE72500080308
:105EC0000CB60020006C0020752000009D1F000013
:105ED0004D21000009200000E1200000C96E0100F2
:105EE0000522000024C3002020C30020891E0000DA
:105EF00000E400E004C5002094BF002000B583B09A
:105F00000191FFF79DFF019801F012FC012003B001
:105F10005DF804FB134BA1F120029A421FD8002325
:105F200010B4114C224602E00133202B12D052F85B
:105F3000040B0028F8D121F001010C4AB1F800C08F
:105F400044F8231022F813C04DF610725DF8044B8C
:105F50000A8070474FF0FF305DF8044B70474FF0F8
:105F6000FF307047E0FF272004C5002084C50020D3
:105F7000124BA1F120029A421CD821F0010100230A
:105F800010B40F4C224602E00133202B0DD052F802
:105F9000040B8842F8D10B4A002032F8132044F851
:105FA00023005DF8044B0A8070474FF0FF305DF826
:105FB000044B70474FF0FF30704700BFE0FF2720D1
:105FC00004C5002084C50020014B1960704700BF44
:105FD0008CB300200846FFF73BBE00BF08461146C1
:105FE000FFF7A6BE024B0021024AC3E90021704719
:105FF000FCB400209427002010DF00BF036818477E
:106000000B680360704700BF0B680360704700BFF8
:10601000704700BF10B5044613F060FF204610BD66
:10602000002370B504680B60237863B91DE0092D67
:1060300019D9052E19D80B68013442EA03120A60F7
:10604000046023788BB1A3F1610CA3F1300EA3F1AE
:106050004106A3F13702BCF1050F5FFA8EF5E6D8D1
:10606000A3F15702E7E77246E5E770BD036884468F
:1060700000B51A78A2F16101052940F2C580A2F1AC
:106080003001C9B2092940F2A780A2F141010529D6
:1060900000F2DB80373A1201D2B25978A1F16100E7
:1060A000052840F2A180A1F13000C0B2092806D92C
:1060B000A1F14100052800F2CA803739C8B29978A9
:1060C00002440020A1F1610E62F30700BEF1050F4A
:1060D00040F29E80A1F13002D2B2092A40F2B28091
:1060E000A1F14102052A00F2B48037390901C9B291
:1060F000DA78A2F1610EBEF1050F40F29380A2F1B1
:10610000300E5FFA8EFEBEF1090F08D9A2F1410EE2
:10611000BEF1050F00F29F80373A5FFA82FE1A79CE
:106120008E44A2F161016EF30F20052940F28280B6
:10613000A2F13001C9B2092906D9A2F1410105290C
:1061400000F28C80A2F137010901C9B25A79A2F19B
:10615000610EBEF1050F69D9A2F1300E5FFA8EFE15
:10616000BEF1090F07D9A2F1410EBEF1050F77D894
:10617000373A5FFA82FE71449A7961F31740A2F1CF
:106180006101052933D9A2F13001C9B2092956D9D3
:10619000A2F14101052966D8373A1201D2B2D97964
:1061A000A1F1610EBEF1050F2AD9A1F1300E5FFAFF
:1061B0008EFEBEF1090F07D9A1F1410EBEF1050F08
:1061C00053D837395FFA81FE7244083362F31F6097
:1061D000CCF800305DF804FB0901CAB25978A1F18E
:1061E000610005283FF65FAF5739C8B267E7D97934
:1061F000573AA1F1610E1201BEF1050FD2B2D4D807
:1062000057395FFA81FEDFE7573A1201D2B244E70D
:10621000DA785739A2F1610E0901BEF1050FC9B252
:106220003FF66DAF573A5FFA82FE78E7573A5FFA6A
:1062300082FEA0E7A2F157010901C9B286E7090170
:10624000CAB2ACE71201D1B252E7F02225E7FF2033
:1062500035E7F0214CE74FF0FF0E60E7F02175E7DE
:106260004FF0FF0E87E7F02299E74FF0FF0EABE704
:1062700070B50C4D0C4E2C6804F57A7403E030BFF9
:106280002B689C420BD3306803681B699847002831
:10629000F5DD306803685B699847C0B270BD4FF0A8
:1062A000FF3070BDC8C5002024B600202DE9784716
:1062B000174B10B11860BDE878871A68002AFAD128
:1062C000144A40F2EE29144D144CDFF854802E6825
:1062D000DFF850A01A6004E0B3F5FA6FEBD815F0C0
:1062E0006BF815F069F823784BB198F80030DB07AC
:1062F00005D52B68DAF800209B1A0E2BDBD82B680B
:1063000022789B1B002AE7D14B45E8D9D3E700BF91
:1063100024B60020E44F0020C8C5002050C600204D
:106320004FC6002008C60020002A38B505460C4696
:106330001BDB02B3AB1C611E5000114C03EB42028D
:1063400011F801CF02334FEA1C1E0CF00F0C9342E0
:1063500014F80EE003F804EC14F80CC003F803CCB6
:10636000EED128440023037038BD08461EF008FB18
:106370000246002ADED128460023037038BD00BF44
:10638000E46500202DE9F04104780546002C32D068
:1063900001460023234411F8014FDBB2002CF9D150
:1063A0001E1103F00F04DFF858802421D8F80000F4
:1063B00003681B689847297841B1D8F80000036842
:1063C0001B68984715F8011F0029F6D1D8F800007E
:1063D00023210A4D03681B689847D8F80000A95D7F
:1063E00003681B689847D8F80000295D0368BDE87A
:1063F000F0411B6818472646D5E700BFE46500203A
:1064000024B6002030B50E4D0C4683B001462B78E3
:106410005BB1019028461EF0B3FA22460199284448
:10642000FFF782FF204603B030BD4F2328462246A7
:1064300000F8013BFFF778FF204603B030BD00BFF6
:10644000FCC300202DE97841DFF83480D8F80060E3
:10645000036873B104460D4606F57A761DB1D8F887
:1064600000309E4208D330BF14F0A6FF2368002BF3
:10647000F4D10020BDE878814FF0FF30BDE878818D
:10648000C8C5002080B500AF094B01221A60094B36
:106490001B68094A52F823301846FFF773FF0021A2
:1064A0000348FFF7CFFF034B00221A6000BF80BDF7
:1064B00090BF002008B60020146800202DE9704726
:1064C000CB4883B00D46CB49FFF784FD0646CA4949
:1064D000C748FFF77FFDC94B46F001029A4200F022
:1064E000CD818046C649AC1CC148FFF773FDDFF87B
:1064F0004C93019001AA05F10A0012F8013B023405
:10650000191103F00F03844219F8011004F8041C58
:1065100019F8033004F8033CEFD1BA49B448FFF747
:1065200059FD01AA019005F1120012F8013B023455
:10653000191103F00F03844219F8011004F8041C28
:1065400019F8033004F8033CEFD1AF49A848FFF72E
:1065500041FD01AA019005F11A0012F8013B023435
:10656000191103F00F03844219F8011004F8041CF8
:1065700019F8033004F8033CEFD1A4499C48FFF715
:1065800029FD01AA019005F1220012F8013B023415
:10659000191103F00F03844219F8011004F8041CC8
:1065A00019F8033004F8033CEFD199499048FFF7FC
:1065B00011FD01AA019005F12A0012F8013B0234F5
:1065C000191103F00F03844219F8011004F8041C98
:1065D00019F8033004F8033CEFD18E498448FFF7E3
:1065E000F9FC01AA019005F1320012F8013B0234D6
:1065F000191103F00F03844219F8011004F8041C68
:1066000019F8033004F8033CEFD1834905F13A0A45
:106610007748FFF7DFFC01AA019012F8013B023432
:10662000191103F00F03A24519F8011004F8041C16
:1066300019F8033004F8033CEFD1784905F142041E
:106640006B48FFF7C7FC534601A9019011F8012BD5
:106650000233101102F00F029C4219F8000003F8F7
:10666000040C19F8022003F8032CEFD16C496048A0
:10667000FFF7B0FC224601A905F14A04019011F888
:10668000013B0232181103F00F03944219F8000085
:1066900002F8040C19F8033002F8033CEFD1614909
:1066A0005348FFF797FC234601A905F152040190D6
:1066B00011F8012B0233101102F00F029C4219F85D
:1066C000000003F8040C19F8022003F8032CEFD1A2
:1066D00055494748FFF77EFC224601A905F15A04B7
:1066E000019011F8013B0232181103F00F0394429C
:1066F00019F8000002F8040C19F8033002F8033C02
:10670000EFD14A493A48FFF765FC234601A905F154
:106710006204019011F8012B0233101102F00F02F4
:106720009C4219F8000003F8040C19F8022003F841
:10673000032CEFD13E492E48FFF74CFC2246019036
:1067400005F16A0301A810F8011B02320C1101F0D7
:106750000F01934219F8044002F8044C19F8011093
:1067600002F8031CEFD101A905F17204CDF80480F1
:1067700011F8012B0233101102F00F029C4219F89C
:10678000000003F8040C19F8022003F8032CEFD1E1
:1067900028491748FFF71EFC2246019005F17A03AD
:1067A00001A810F8011B02320C1101F00F019342F5
:1067B00019F8044002F8044C19F8011002F8031CFF
:1067C000EFD101A905F18204019611F8012B0233E2
:1067D000101102F00F029C4219F8000003F8040C9B
:1067E00019F8022003F8032CEFD1134928E000BF69
:1067F000FCB40020D0080020D4080020F9250000B7
:10680000D8080020DC080020E0080020E408002070
:10681000E8080020EC080020F0080020F408002020
:10682000F8080020FC0800200009002004090020CE
:10683000080900200C09002010090020E465002050
:106840001148FFF7C7FB224601AB05F18A0401900E
:1068500013F8011B0232081101F00F01944219F8DC
:10686000000002F8040C19F8011002F8031CEFD123
:10687000002085F8880003B0BDE87087034B044E04
:10688000D3F800802EE600BFFCB400205CB60020E8
:106890000010006070B582B0431C524C0E46524D41
:1068A00001A80193FFF7E2FB04F108010246284624
:1068B000FFF794FB01A8FFF7D9FB04F10C01024696
:1068C0002846FFF78BFB01A8FFF7D0FB04F110016E
:1068D00002462846FFF782FB01A8FFF7C7FB04F139
:1068E000140102462846FFF779FB01A8FFF7BEFB1B
:1068F00004F1180102462846FFF770FB01A8FFF7D4
:10690000B5FB04F11C0102462846FFF767FB01A80E
:10691000FFF7ACFB04F1200102462846FFF75EFBBF
:1069200001A8FFF7A3FB04F1240102462846FFF764
:1069300055FB01A8FFF79AFB04F1280102462846FF
:10694000FFF74CFB01A8FFF791FB04F12C01024675
:106950002846FFF743FB01A8FFF788FB04F130014D
:1069600002462846FFF73AFB01A8FFF77FFB04F138
:10697000340102462846FFF731FB01A8FFF776FBFA
:1069800004F1380102462846FFF728FB01A8FFF76B
:106990006DFB211D02462846FFF720FB01A8FFF7EB
:1069A00065FB04F13C0102462846FFF717FB01A8EE
:1069B000FFF75CFB214602462846FFF70FFB01A8C4
:1069C000FFF754FB04F1480102462846FFF706FB97
:1069D000B4F8502094F8523000203280B37002B0E6
:1069E00070BD00BFD0080020FCB4002030B5831C6F
:1069F00083B00D4601934278A2F16103052B21D9A2
:106A0000A2F13003D9B209291AD9A2F14103052B09
:106A100000F28A80A2F13704C31C01A80193FFF79A
:106A200025FB631E02460E2B00F28480DFE803F094
:106A300068635E59544F4A45403B3631231B0D0075
:106A40001C46E9E7A2F15704E6E73D493D48FFF758
:106A5000C5FA3B4B0020B3F8502093F852302A80FF
:106A6000AB7003B030BD384B98424ED037493548F3
:106A7000FFF7B4FAEDE7009034493248FFF7AAFA7D
:106A8000334B009A83424CD032492E48FFF7A6FA86
:106A9000DFE731492B48FFF7A1FADAE72F49294808
:106AA000FFF79CFAD5E72E492648FFF797FAD0E77B
:106AB0002C492448FFF792FACBE72B492148FFF7EE
:106AC0008DFAC6E729491F48FFF788FAC1E7284928
:106AD0001C48FFF783FABCE726491A48FFF77EFAFD
:106AE000B7E725491748FFF779FAB2E72349154870
:106AF000FFF774FAADE722491248FFF76FFAA8E7EB
:106B000020491048FFF76AFAA3E7114A0F490D48D8
:106B1000FFF764FA0F490B48FFF75CFA1A4B18604D
:106B200097E7194B1A60AFE7C31C01A80193FFF761
:106B30009DFA8EE715490348FFF750FA89E700BF31
:106B4000D0080020FCB40020011000600C090020D7
:106B5000F9250000D40800200809002004090020BD
:106B600000090020FC080020F8080020F40800209C
:106B7000F0080020EC080020E8080020E4080020CD
:106B8000E0080020DC0800205CB60020D8080020C7
:106B9000184BA0F120029A4206D8213908449842A5
:106BA0008CBF00200120704700F12043B3F5F80F9F
:106BB00009D86FF0C0430B441844B0F5F80F8CBFF0
:106BC0000020012070470C4B1B7883B10B4A904288
:106BD0000DD302EB0353984209D8013901448A428C
:106BE0008CBF002001208B4238BF0020704700205E
:106BF000704700BFE0FF27203CC600200000007067
:106C000070B5042684B0431C0D460DEB060002A9A6
:106C100001930396FFF704FA019B1A782C2A23D0DC
:106C2000029C31462046FFF7B3FF60B3601E00238D
:106C3000184C05F1010C10F8012F110902F00F0298
:106C4000615C05F81310A25C0CF813200133B34209
