:0200000460009A
:100000004643464200000156000000000103030081
:1000100000000000000000000000000000000000E0
:1000200000000000000000000000000000000000D0
:1000300000000000000000000000000000000000C0
:1000400000000000010408000000000000000000A3
:100050000000800000000000000000000000000020
:100060000000000000000000000000000000000090
:100070000000000000000000000000000000000080
:10008000EB04180A063204260000000000000000FD
:10009000050404240000000000000000000000002F
:1000A0000000000000000000000000000000000050
:1000B0000604000000000000000000000000000036
:1000C0000000000000000000000000000000000030
:1000D00020041808000000000000000000000000DC
:1000E0000000000000000000000000000000000010
:1000F0000000000000000000000000000000000000
:10010000D8041808000000000000000000000000F3
:100110000204180804200000000000000000000095
:1001200000000000000000000000000000000000CF
:10013000600400000000000000000000000000005B
:1001400000000000000000000000000000000000AF
:10015000000000000000000000000000000000009F
:10016000000000000000000000000000000000008F
:10017000000000000000000000000000000000007F
:10018000000000000000000000000000000000006F
:10019000000000000000000000000000000000005F
:1001A000000000000000000000000000000000004F
:1001B000000000000000000000000000000000003F
:1001C000000100000010000001000000000000001D
:1001D000000001000000000000000000000000001E
:1001E000000000000000000000000000000000000F
:1001F00000000000000000000000000000000000FF
:10020000FFFFFFFFFFFFFFFFFFFFFFFFFFFFFFFFFE
:10021000FFFFFFFFFFFFFFFFFFFFFFFFFFFFFFFFEE
:10100000D10020434D1600600000000000000000E9
:101010002010006000100060008C026000000000E2
:10102000000000600098020000000000FFFFFFFFCA
:10103000FFFFFFFFFFFFFFFFFFFFFFFFFFFFFFFFC0
:10104000FFFFFFFFFFFFFFFFFFFFFFFFFFFFFFFFB0
:10105000FFFFFFFFFFFFFFFFFFFFFFFFFFFFFFFFA0
:10106000FFFFFFFFFFFFFFFFFFFFFFFFFFFFFFFF90
:10140000814205D051F8043B40F8043B8242F9D8B0
:10141000704700BF044A05494FF0000342F8043BFF
:101420009142FBD8704700BFC05E002040B400204E
:101430002DE98848BFF34F8F00BF00BF00BF00BF3A
:1014400000F0C2FE684B0822C3F8542100BF00BF61
:1014500000BF00BF00BF00BF00BF00BF00BF00BF94
:1014600000BF00BF00BF00BF00BF00BF5F4A6049B0
:101470006048FFF7C5FF604A60496148FFF7C0FF59
:10148000604CFFF7C7FF4FF470004FF0E0210023DE
:101490005D4AC1F8880D44F823200133B02BFAD1FE
:1014A0005A4B80215A4A03F8011B9342FBD14FF05B
:1014B000E0254D4E4FF08039DFF884B1DFF884A18C
:1014C0004FF0FF31C5F8084D0027C6F80491C6F863
:1014D00000B1C6F8F490C6F8F0A0D5F8243DDFF8C6
:1014E000688143F4E0234B4AC5F8243DD8F81C300A
:1014F00023F07F0343F04003C8F81C30D8F82430B1
:1015000023F07F0343F04003C8F824309166D1668E
:101510001167516700F060FE3F4B4049A363404BA9
:10152000E36363236B610323AF612B613D4BC5F81C
:10153000203DD5F8FC3D43F08073C5F8FC3D3A4BA7
:101540001A6842F001021A605B680B6001F08EF8C5
:10155000C6F804913548C6F800B1C6F8F490C6F84C
:10156000F0A001F079F9D8F86C10314B314A41F410
:101570004051C8F86C101F60C3F80871C3F81871A7
:10158000C3F82871C3F83871936BDB0708D442F6AF
:101590001563294951651365936B43F00103936308
:1015A000244A264C936843F00113936000F09CFE9C
:1015B00000F0E0FD01F058F901F086F800F006FEB9
:1015C0002368132BFCD900F037FD2368B3F5967F11
:1015D000FBD300F0FFFD00F0FBFD01F029F901F065
:1015E0002FF930BFFDE700BF00800D4068F7010014
:1015F000E831006000000000C05E00205429026055
:1016000000000020005C00200546010000E400E02E
:10161000A0E400E000C00A40D93E010090B30020E1
:10162000B53F010000002020001000E00046C32369
:101630000040084000400D400000C05694B3002018
:101640001B1018200C0D111300C00F40054B4FF458
:101650002A01054A05485A641864054A9963954663
:10166000FFF7E6FE00C00A40FFAAAAAA0700200072
:101670000000062007EE901ADFED196A10F4C01F73
:10168000B8EE677A07EE902A00F07F02F8EE677AEC
:1016900087EE270A07EE902AC0F3C142F8EEE77AF8
:1016A00030EE270A20EE260A08D1F5EE007A20EE69
:1016B000270A012B0AD0032B0DD07047012AF8D13D
:1016C000F6EE007A012B20EE270AF4D1F6EE007A2E
:1016D00020EE270A7047F5EE007A20EE270A7047C1
:1016E000001BB74BDFED5D7AB4EEE70A2DE9F0435E
:1016F000F1EE10FA83B004460E4615460A980CDC4B
:10170000DFED577AB4EEE70AF1EE10FA40F3948079
:10171000B1EE006A4122042703E0B0EE006A212204
:101720000227DFED506A4FF0880C1A704FF0000866
:10173000C6EE807A4C4A9FED4D7A02F1010E02F11D
:101740001E01C7EE866A01E01EF801CB4FEA1C13AA
:101750000CF00F09AEEB020C13FB09F307EE903A05
:101760000CF1FF33F8EEE77A77EEE67AF0EEE77AFF
:10177000F4EEC77AF1EE10FA02D5B0EE677A984629
:101780008E45E1D112F8083020EE060ADFED386A06
:101790004FEA1318037003F00F039FED367A18FB1E
:1017A00003F807EE908AF8EEE77A60EE277A87EE84
:1017B000A60AB4EEC70AF1EE10FA3AD4DFED2E7A9B
:1017C000B4EE670AF1EE10FA37FE800A01A807FBB3
:1017D00008F801F025F8DFED297ADDED016A6FF0F8
:1017E000604220EE270A9FED226AFCEEE66A07EED1
:1017F000908ABCEEC07A16EE903AF8EEE77A237043
:10180000F8EE475A2A6086ED007AD5ED006A237813
:10181000F8EE666A07EE103A85EEA60AB8EE477A49
:1018200030EE070A20EE060A80EE270A03B0BDE874
:10183000F083B0EE470AC9E79FED117AB2EE006A75
:10184000F3EE007AB4EEC70AF1EE10FACBBF4222F3
:1018500044220827102736FE276A62E7DAF81A4D75
:10186000DAF89A4C4775684E482600200000807FC1
:10187000001BB74BFCA9D84102AB58420000004EF8
:10188000DAF81A4C026838B52E4B9A4215D02E4B16
:101890001A6A9D6AC2F3C1429C6AC5F34225012AB5
:1018A000C4F3426416D0022A35D0D2B1631C274853
:1018B00005FB0333B0FBF3F038BDA3F530231A6BFF
:1018C0001D6BC2F3C1121C6BC5F30235012AC4F3B0
:1018D0004224E8D1631C1E4805FB0333B0FBF3F040
:1018E00038BD1C4AD2F87031106F990DC3F3C03364
:1018F00001F002010B43D2F88010D2F89020FFF7DC
:10190000B9FEFCEEC07A631C17EE900A05FB0333A8
:10191000B0FBF3F038BD0F4BD3F8A000D3F8B010F4
:10192000D3F8C020D3F870319B0FFFF7A3FEFCEE75
:10193000C07A631C17EE900A05FB0333B0FBF3F08B
:1019400038BD00BF00C01A4000C00F4000389C1CCA
:1019500080204B1E00800D40094B0A6810B40468BB
:101960009C4208BF9A420CBF0120002005D09C4237
:1019700018BF9A4214BF012000205DF8044B704745
:1019800000C01A40022970B408D1274C4FF48835A2
:10199000C4F8A8504FF40055C4F8A450234C05686F
:1019A000A54222D04568C9045B06286801F4C0112D
:1019B0006E685202046803F0606302F4606224EA15
:1019C000060404601A4C266A26F4C01C41EA0C0185
:1019D0002162A16A21F00E210B431A43A2626A68B8
:1019E0000368134370BC0360704740685B021203D6
:1019F000046803F46063466802F4E0422568C901A4
:101A000025EA06050A4E01F4C0712560356B25F400
:101A1000FF452B4313430B4333632368426813434F
:101A2000236070BC704700BF00800D4000C01A40AA
:101A300000C00F4070B53F4C8822DFED3F7A002692
:101A4000611C9FED3E7AC7EE806A04F11E0C0D46C4
:101A500001E015F8012B130902F00F0E2A1B13FBEE
:101A60000EF307EE903A531EF8EEE77A77EEE67A39
:101A7000F0EEE77AB4EEE77AF1EE10FA02DDB0EEBE
:101A8000677A1E466545E4D1DFED2D7A8822A65D92
:101A9000002587EE806ADFED296A01E011F8012B4D
:101AA000130902F00F0E0A1B13FB0EF307EE903A18
:101AB000531EF8EEE77A77EEC67AF0EEE77AF4EEA8
:101AC000E76AF1EE10FA02DDF0EE676A1D46614545
:101AD000E4D1F4EEC76A635DF1EE10FA14DB340969
:101AE00006F00F0603219FED147A621E731E14FB8D
:101AF00006F4DBB207EE904AD2B2FFF743FFF8EEEE
:101B0000E77A87EE270A70BD1C0903F00F05012153
:101B10009FED0B7A621E6B1E14FB05F4DBB207EE21
:101B2000904AD2B2FFF72EFFF8EEE77A87EE270A47
:101B300070BD00BF48260020C0E1E44D0000807F5A
:101B40000459F24D30B587B00DF10F040DF10E03BD
:101B500005AA04A9009404460DF10D00FFF7C2FD8B
:101B60009DF80E209DF80D3010091D4903F03F032C
:101B700002F00F02A0F10200022AB0FA80F04FEA50
:101B8000501043EAC0430B67049BC1F88030059BAB
:101B9000C1F8903020D0042A18D1124B1D46C1F84C
:101BA00078310F4B4FF4005220460021C3F8745196
:101BB0005A679DF80F2002F00F031209013B013A0A
:101BC000DBB2D2B2FFF7DEFE07B030BD0025044B1A
:101BD000044AC3F87821E4E74FF40045F7E700BF73
:101BE00000800D400080800010B586B00DF10F041C
:101BF0000DF10E0305AA04A9009404460DF10D0091
:101C0000FFF770FD9DF80E209DF80D3010091C495E
:101C100003F07F0302F00F02A0F10200022AB0FAE3
:101C200080F04FEA501043EAC043C1F8A030049B53
:101C3000C1F8B030059BC1F8C0301ED0042A14BFD3
:101C400000214FF040410E4B4FF040422046C3F878
:101C500078214FF40052C3F874110221C3F8A42074
:101C60009DF80F2002F00F031209013B013ADBB28D
:101C7000D2B2FFF787FE06B010BD4FF08041E2E719
:101C800000800D40F8B50546002605F1140405F165
:101C9000A407314640F8046B00F0EEFD04F8046C34
:101CA0000021204600F0E8FD002104F10C0000F0C6
:101CB000E3FD04F118003034002100F0DDFDBC42EA
:101CC000ECD12846F8BD00BFF8B5194C054623787D
:101CD000BBB9071D05F17004A5F1200604F11C0035
:101CE00000F096FD04F1100000F092FD201D303C44
:101CF00000F08EFDB442F1D1384600F089FD28464F
:101D0000F8BD00682F4600F087FD0023064609490C
:101D100047F8043B3846237000F0B2FD002ED9D0BE
:101D2000304600F081FD044600F086FD0460D1E7F6
:101D3000F9B30020A01E00202448254BD0F88020B5
:101D4000244942F4405210B4C0F88020224C234A67
:101D50001C6023485A60234A1862234C5A62234865
:101D6000234A9C6246F62014D86240F6A3101A63F8
:101D70004FF4C862596359634FF4C841DC603F2493
:101D80009860D9619A611A681A4822F080021A494B
:101D90001A601A6822F00C021A601A6822F0030214
:101DA00042F002021A605C6118610020D3F8A020A2
:101DB0005DF8044B22F00202C3F8A0201A6822F456
:101DC00080321A60DA6F1B6C0860704700C00F40E9
:101DD00000C00C402F002E00401001002200010026
:101DE00068050C019501B200DC007A007D00580006
:101DF0004B004000C409800C6CB20020074A1368F5
:101E000043F48033136013689B04FCD5044AD2F872
:101E1000803023F44053C2F88030704700C00C403B
:101E200000C00F4000B583B0019000F021FD019883
:101E300003B05DF804FB00BF38B5044600254FF041
:101E4000FF330D4925721030C4E9003500F014FD50
:101E50000120E5612084204684F82250E562256552
:101E6000C4E90955C4E90C55C4E90E55C4E9105537
:101E7000C4E9125538BD00BF1037002010B5044624
:101E800000F0E2FCE36C23B104F1440103220846B4
:101E90009847E36B23B104F13401032208469847C5
:101EA000E36A23B104F1240103220846984704F1B0
:101EB000100000F0ADFC204610BD00BF43690A4A87
:101EC00003EB011010B4037A084C02EB0313D3E9BF
:101ED00001321460C2681A6003690BB142691A606A
:101EE0005DF8044B704700BFC82B002061F801006B
:101EF0004369027E03EB021292F808C08C451CD0A5
:101F00001A7AFF2A19D0914210B5044616D01A7ECB
:101F1000FF2A06D00121D3E9002312681A4201D119
:101F2000217610BD064B0522204603EB0C135B689F
:101F30001A60FFF7C3FF2176F3E770470021EAE755
:101F4000C82B002043690A4A03EB011010B490F833
:101F50002830084C02EB0313D3E901321460C26A43
:101F60001A60036B0BB1426B1A605DF8044B70474B
:101F7000C82B002061F801004369427E03EB021286
:101F800092F828C08C451ED093F82820FF2A1AD03A
:101F9000914210B5044617D093F83820FF2A06D096
:101FA0000121D3E9002312681A4201D1617610BDE4
:101FB000064B0522204603EB0C135B681A60FFF703
:101FC000C1FF6176F3E770470021EAE7C82B0020E4
:101FD000164942698B6B23F47C0343F4802370B56C
:101FE0008B630446124DD2E900130A681A43036951
:101FF0000A60022200211A610E4A19619A640122C4
:102000005A629D624FF43035DD624FF001159E6CCF
:102010001E6519629D651A61017EFFF74FFF617EA3
:102020002046BDE87040FFF78DBF00BF00C00F40E5
:10203000B80B05053B372819314B40F6617210B5D6
:10204000C3F8202140F2044400F0DEFB2D4A2E4963
:10205000D2F880302D4843F00303C2F880302C4B77
:10206000C1F8604102681A4203D1D1F8A8319A0739
:102070001BD0254A4FF00041244B5963D2F8403120
:1020800043F00203C2F84031D2F840319B07FBD441
:102090004FF400304FF0E0211C4B4FF00042C1F8EC
:1020A0008C0219209A6300F0EFFB184A4FF0804031
:1020B000154C002190630A20164B11604FF460729A
:1020C000C4F8A801184600F0CBFB4FF48002034689
:1020D0004FF4810040F243111860C4F858311A647B
:1020E0000D4B0E4AC4F84811C3F804224FF0E02209
:1020F0004FF400310123C2F80C11C4F8403110BD77
:1021000000800D4000C00F4000002E4000900D40A8
:10211000001C1E0000000020005C0020A93001000F
:1021200008B50E4B1B6E9B0700D4FBBE72B60C4B62
:1021300000200C4AC3F8400103F160430A49A3F5AB
:102140005F2311649D46BFF34F8F4FF40013074880
:10215000074ADB6902609B68984700BF00441F4044
:1021600000002E4000C00A40030020000080202014
:10217000000012EB104BA020104AD96E41F4403100
:1021800010B4D96640F23764D96E41F44071D96613
:1021900054649064936C1B06FCD4094A40F2376186
:1021A000A02351649364936C13F08003FBD1054A20
:1021B00013705DF8044B704700C00F4000400C40A6
:1021C00000800C40FEB30020704700BF704700BF86
:1021D000704700BF00BF704710B44FF0E0230021EC
:1021E00010243148C3F8941DC3F89C4D1124C3F842
:1021F000A00D2E48C3F89C4D1224C3F8A00D2C4806
:10220000C3F89C4D2B4AC3F8A00D2B4C42F015028D
:102210002A48C3F89C4DC3F8A00D294C2948C3F89F
:102220009C4DC3F8A00D284CC3F89C2D2748284A84
:10223000C3F8A04DC3F89C0DC3F8A02D02F5A02251
:10224000244C0C322448C3F89C4DC3F8A02D234ADB
:10225000C3F89C0D224CC3F8A02D02F14062C3F8D4
:102260009C4D2048C3F8A02D0C32C3F89C0DC3F838
:10227000A02D00BF00BF00BF00BF00BF0122C3F8F8
:10228000942DBFF34F8FBFF36F8FC3F8501FBFF371
:102290004F8FBFF36F8FD3F8142D5DF8044B42F4CA
:1022A0004032C3F8142D70473F0000102500080786
:1022B0000900100040B40020130020002100020794
:1022C000140000202500081309000010160020202B
:1022D00027000B1317000040180000602F000B07A9
:1022E000190000701A000080F0B5B84B1822B84EE3
:1022F0000120B84F83B0C3F85C62B749C3F860727D
:10230000B64DC3F86462A6F53046B54CC3F86862B2
:10231000C3F86C52C3F87052C3F87452C3F87852C1
:1023200048F20C75DA661A675A679A67DA67C3F873
:102330008020C3F88420C3F88820C1F82C03A94A60
:10234000C1F83003C1F83403C1F83803C1F83C03C5
:10235000C1F85003A169A44B0A40A448A4491343FF
:10236000A44AA361D4F8843043F00C03C4F8843049
:102370004FF0FF34036843F00203036003682B400F
:102380004FF400551A439C4B026044608A689B4C92
:1023900013409B4A43F000538360C36823F07803E3
:1023A000C360036A134023430362036A1340954AE0
:1023B0002343954C43628262C2620022D1F8B83056
:1023C00023F03F0343F00103C0F8B830D1F8BC302C
:1023D0008E4923F03F0343F00103C0F8BC3040F2C4
:1023E0000563026105660467C0F88030456644678E
:1023F0000224C0F88430036823F002030360816183
:10240000834B8449C46143F8042B8B42FBD1774A48
:10241000136843F001031360136813F00103FBD149
:102420007A48022140F2F564906140F29940D1610E
:1024300040F26641C2F8004242F20144C2F8101272
:102440007549C2F82002C2F8301240F23541734893
:10245000C2F83442C2F84012714CC2F8500242F243
:1024600001207049C2F854120121C2F86042C2F83A
:1024700064025E48C2F8A030C2F8A430C2F8B010BE
:102480004369DA07FCD5012300244FF48032574911
:102490004361C0F8A040C0F8A420C0F8B0304B6938
:1024A000DB07FCD5012300244FF400304F4A4B6179
:1024B000C1F8A040C1F8A400C1F8B0305369DF07EB
:1024C000FCD501230024584848495361C2F8A04074
:1024D000C2F8A400C2F8B0304B69DE07FCD5D1F8D1
:1024E000003145F60D5221209BB24861934265D1DF
:1024F00000244FF4802201233C48C1F8A040C1F8D9
:10250000A420C1F8B0304369DD07FCD501234FF4A6
:1025100000040021354A4361C0F8A040C0F8A4106F
:10252000C0F8B0305369DC07FCD501234FF4000438
:102530004FF480302D495361C2F8A040C2F8A40086
:10254000C2F8B0304B69D807FCD501234FF4000422
:102550004FF40030254A4B61C1F8A040C1F8A400F7
:10256000C1F8B0305369D907FCD501234FF40004FA
:102570002D481E495361C2F8A040C2F8A400C2F819
:10258000B0304B69DA07FCD5D1F8003145F60D5271
:1025900021209BB24861934250D008254FF400049B
:1025A00022490020224B234A009015705A1A012319
:1025B0002148224400F04CF903B0F0BD1E4B00222C
:1025C000C3E90022C3E9022203B0F0BD00801F402E
:1025D000F9B00100F910010000841F40F9700100FA
:1025E00000C00F40FFFCFF1F000300A000402A4076
:1025F00000802A401200FFFFFF37F70040000080F4
:1026000000FFF07CFF000F8363000200F05AF05AD5
:1026100000422A4000432A409F041830EB06180A63
:102620003806180A06320126040003000000007074
:102630000000007000B4002004A600204FF4000445
:102640004FF4802201230848C1F8A040C1F8A4201B
:10265000C1F8B0304369DB07FCD5012310254FF0EA
:10266000807443619CE700BF00402A40F0B4154AE3
:1026700040274FF480314FF480564FF400554FF40B
:10268000404443F24200136913F0020F0ED113F4D9
:10269000005F0FD013F4805F0ED0002BF3DA13F439
:1026A000803F0BD15B060BD5F0BC70479461516144
:1026B0009061E8E75561E6E75661E4E79161E2E79A
:1026C0005761E0E700800D403F4A03203F49F3EEA9
:1026D000095AD2F880304FF0000C9FED3D6A23F08C
:1026E00001039FED3C5A30B4C2F88030C2F890002C
:1026F000D1F8E010384DCBB2384C39482B6007EE9A
:10270000903A0B0DC1F30B21F8EEE77A06EE903A02
:1027100007EE101A334BB8EEC77A2160F8EEE66A7E
:10272000314937EEC66A37EEC55A76EEC76A77EE9C
:10273000E57A26EE266AC3ED006A25EE265AD2F81F
:10274000803067EEA64AC0ED007AC6EE275A2748C9
:1027500085EE276AC4EEA76A75EE875AFCEEE55A45
:1027600036EE076A15EE904ABCEEC66A43EA045399
:1027700076EE877AC2F8803016EE103AD2F89041A1
:10278000FCEEE77A01EA0341214317EE903AC2F8E2
:102790009011C3F30B03D2F890110B431449C2F804
:1027A0009031D2F8803043F00203C2F88030114BF0
:1027B00080F840C0C1F840314FF0E023012230BC26
:1027C000C3F80821704700BF00810D4000441F403E
:1027D0000000AA420000B44274B2002070B200208F
:1027E00078B2002084B200200000FF0F00E400E077
:1027F000005C0020954A0100F8B500BFF8BC08BC99
:102800009E467047000000005FF800F0214C010078
:102810005FF800F0E15401005FF800F0CD310000F6
:102820005FF800F0116F01005FF800F06D2200000A
:102830005FF800F0599B01005FF800F0F5770100A8
:102840005FF800F0AD6B01005FF800F04955000043
:102850005FF800F0854001005FF800F02D380100BE
:102860005FF800F05D9A01005FF800F0DD440100C0
:102870005FF800F0691B00005FF800F0A55401004C
:102880005FF800F0595501005FF800F0156801008D
:102890000501000009060000C10800000118000041
:1028A000C518000081190000751A0000ED1A00001B
:1028B0009D1C00000D1D0000CD1D0000B95300003F
:1028C00069540000D5550000B57E0000BDA200008F
:1028D00051A400008DA40000F52D0100A53C0100CD
:1028E000F53C0100B5690100A96A0100596B0100BE
:0828F000156C0100D16C010020
:1028F80014801F4018801F401C801F4020801F40EC
:1029080024801F4028801F402C801F4030801F409B
:1029180034801F4038801F403C801F4040801F404B
:102928007C801F4080801F4084801F4088801F401B
:102938003C811F4040811F4044811F4048811F4007
:102948004C811F4050811F4054811F4058811F40B7
:102958005C811F4060811F4064811F4068811F4067
:102968006C811F4070811F4074811F4078811F4017
:102978007C811F4080811F4084811F4088811F40C7
:102988008C811F4090811F4094811F4098811F4077
:102998009C811F40A0811F40A4811F40A8811F4027
:1029A800AC811F40B0811F40B4811F40B8811F40D7
:1029B800FC801F4000811F4004811F4008811F4088
:1029C8000C811F4010811F4014811F4018811F4037
:1029D8001C811F4020811F4024811F4028811F40E7
:1029E8002C811F4030811F4034811F4038811F4097
:1029F8007C811F4080811F4084811F4088811F4047
:102A08008C811F4090811F4094811F4098811F40F6
:102A18009C811F40A0811F40A4811F40A8811F40A6
:102A2800AC811F40B0811F40B4811F40B8811F4056
:102A38002037002008300000303700202C300000FC
:102A4800443700203A300000543700203B30000063
:102A5800643700203C300000743700203D3000000F
:102A68008437002003350000943700200038000028
:102A7800A037002001380000AC37002002380000E1
:102A8800B837002003380000C4370020043800009D
:102A9800D437002005380000E4370020063800004D
:102AA800F4370020073800000438002008380000F8
:102AB8001438002009380000243800200A380000A3
:102AC800343800200B380000443800200C3800004F
:102AD800543800200D380000643800200E380000FB
:102AE800743800200F3800008438002010380000A7
:102AF80090380020113800009C380020123800005F
:102B0800A838002013380000B4380020143800001A
:102B1800C038002015380000CC38002020380000CC
:102B2800DC38002021380000EC3800202438000070
:102B3800F838002001420000083900200242000055
:102B480018390020004300002839002040470000C1
:102B58003C390020015000004C3900201F50000073
:102B6800583900203D5000007039002001560000FF
:102B780080390020025600009039002003560000DA
:102B8800A039002004560000B03900200556000086
:102B9800C039002006560000D039002080560000B9
:102BA800DC39002081560000E839002082560000F8
:102BB800F439002083560000003A002084560000B3
:102BC8000C3A002085560000183A0020865600006E
:102BD800243A002087560000303A00200C460000B6
:102BE800403A002002460000503A00200346000008
:102BF800603A002004460000703A002005460000B4
:102C0800803A002000440000943A0020014400006B
:102C1800A83A002002440000BC3A00200344000007
:102C2800D03A002004440000E43A002005440000A3
:102C3800F83A0020064400000C3B0020074400003E
:102C4800203B002008440000383B002009440000D5
:102C58004C3B00200A440000603B00200B4400006D
:102C6800743B00200C440000883B00200D44000009
:102C78009C3B00200E4400006400000014811F40AB
:102C88000400000028841F400100000004831F4046
:102C98003830010064000000B0811F4002000000CD
:102CA80028841F4002000000A0831F403830010024
:102CB80064000000F4801F400400000028841F40C6
:102CC80000000000E4821F40383001006500000069
:102CD80018811F400400000020841F4001000000EC
:102CE80008831F403800000065000000B4811F40C1
:102CF8000200000020841F4002000000A4831F403F
:102D08003800000065000000F8801F400400000043
:102D180020841F4000000000E8821F4038000000A7
:102D2800660000000C811F400400000024841F403E
:102D380000000000FC821F403830010066000000DF
:102D4800AC811F400200000024841F4001000000E5
:102D58009C831F40383001006700000010811F402D
:102D680004000000000000000000000000831F4075
:102D78003800000067000000B8811F400200000012
:102D88000000000000000000A8831F403800000079
:102D98000200000038811F400400000000841F402A
:102DA8000000000028831F403800000002000000D7
:102DB800E8801F400400000000841F40010000005C
:102DC800D8821F40380000000300000034811F40F3
:102DD8000400000004841F400000000024831F40FA
:102DE8003800000003000000E4801F4004000000D9
:102DF80004841F4001000000D4821F4038000000F6
:102E08000400000030811F400400000008841F40B7
:102E18000000000020831F4038000000040000006C
:102E2800E0801F400400000008841F4001000000EB
:102E3800D0821F4038000000050000002C811F4090
:102E4800040000000C841F40000000001C831F4089
:102E58003800000005000000DC801F40040000006E
:102E68000C841F4001000000CC821F403800000085
:102E78000600000028811F400400000010841F4045
:102E88000000000018831F40380000000600000002
:102E9800D8801F400400000010841F40010000007B
:102EA80008831F40380000000700000024811F40ED
:102EB8000400000014841F400000000014831F4019
:102EC8003800000007000000D4801F400400000004
:102ED80014841F4001000000C4821F403800000015
:102EE8000800000020811F400400000018841F40D3
:102EF8000000000010831F40380000000800000098
:102F0800D0801F400400000018841F40010000000A
:102F1800C0821F4038000000090000001C811F40CB
:102F2800040000001C841F40000000000C831F40A8
:102F38003800000009000000CC801F400400000099
:102F48001C841F4001000000BC821F4038000000A4
:102F580080C00F40000000031900000010000000AE
:102F6800E8841F4001000000FF000000FF0000008F
:102F78000000000000000000180000001000000021
:102F8800E4841F4001000000FF000000FF00000073
:102F980000000000000000001F000000E92D0100F3
:102FA80070C00F40000C000011000000110000006C
:102FB800E0841F40020000002C0000001200000006
:102FC800E0841F4001000000100000001100000014
:102FD800DC841F40020000002D00000012000000E9
:102FE800DC841F40010000001E000000DD2D0100F0
:102FF80070C00F40C0000000120000001300000065
:10300800D0841F4001000000FF000000FF00000006
:103018000000000000000000130000001300000082
:10302800CC841F4001000000FF000000FF000000EA
:1030380000000000000000001C000000D12D01006D
:10304800160355005300420020004300750073002A
:1030580074006F006D0000001803540065006500DF
:103068006E00730079006400750069006E006F00DF
:10307800040309040902AD00050100C032080B0071
:1030880002020201000904000001020201000524F5
:10309800001001052401010104240206052406008C
:1030A800010705810310001009040100020A00004D
:1030B80000070502024000000705820240000008E0
:1030C8000B020202020100090402000102020100CF
:1030D8000524001001052401010104240206052429
:1030E8000602030705830310004009040300020ACF
:1030F80000000007050402400000070584024000A4
:103108000009040400020300000009211101000164
:10311800221E0007058503FF030107050603FF03B9
:10312800010000000902AD00050100C032080B00D3
:103138000202020100090400000102020100052444
:1031480000100105240101010424020605240600DB
:10315800010705810310000509040100020A0000A7
:1031680000070502020002000705820200020008AB
:103178000B0202020201000904020001020201001E
:103188000524001001052401010104240206052478
:103198000602030705830310000509040300020A59
:1031A800000000070504020002000705840200026F
:1031B80000090404000203000000092111010001B4
:1031C800221E0007058503FF030107050603FF0309
:1031D800010000000A060002EF02014001000000A1
:1031E80000000000000000000000000000000000D7
:1031F80000000000000000000000000000000000C7
:10320800F8B54FF084439D695A6915400DD0254F94
:1032180001269D6195FAA5F4B4FA84F457F8243090
:1032280006FA04F49847A543F4D11F4B9D695A69DF
:1032380015400DD01D4F01269D6195FAA5F4B4FAED
:1032480084F457F8243006FA04F49847A543F4D1D7
:10325800174B9D695A6915400DD0164F01269D617F
:1032680095FAA5F4B4FA84F457F8243006FA04F46D
:103278009847A543F4D1104B9D695A6915400DD064
:103288000E4F01269D6195FAA5F4B4FA84F457F817
:10329800243006FA04F49847A543F4D1BFF34F8FBE
:1032A800F8BD00BF0C580020004000428C58002098
:1032B800008000420C59002000C000428C590020B8
:1032C8000548064B1B1AD90F01EBA301491002D080
:1032D800034B03B118477047C05E0020C05E002052
:1032E8000000000008B5054B1BB105490548AFF3C0
:1032F8000080BDE80840FFF7E3BF00BF0000000002
:10330800E4B100200098026090F81CC04160BCF154
:10331800020FC26001D18368184713F069BE00BF6D
:10332800F0B4046840F201251E462561A3B121B31B
:1033380011F8015B013B6566256FAF0707D4154699
:10334800013E676F1AB105F8017B2A460468656972
:10335800ED07F1D5002BEAD16EB10368196F890723
:10336800FAD41146013E5B6F002AF5D001F8013B03
:103378000A46002EF1D1F0BC704790F83C50D9E7CE
:10338800324B334930B5D3E911542079C8771A6CD8
:1033980095F804C081F81CC0087752B1B2F5004F07
:1033A80023D32C4911442A4A1964D07682F81BC0C9
:1033B80030BD19680F24D86C8C6540F20134CA619D
:1033C8000C614FF47C544C6103210468246883F831
:1033D8003D10214B9C4226D1037F4260022BC260E4
:1033E80026D18368BDE8304018472D68E98B090469
:1033F80022D492B2EA832168EC8BA4B2EC82CC8B03
:10340800240405D5CC8BC2F3080204F47E4422437D
:10341800CA83CA8B92B2CA8200210D4A1964D07637
:1034280082F81BC030BD23461146BDE8304018471E
:10343800BDE8304013F0DCBDE98BC2F3080E92B250
:1034480001F47E4141EA0E01E983D4E7A098002007
:1034580000800E400180FFFF29010000324B3349F4
:1034680030B5D3E911542079C8771A6C95F804C09F
:1034780081F81CC0087752B1B2F5004F23D32C490C
:1034880011442A4A1964D07682F81BC030BD1968E5
:103498000F24D86C8C6540F20134CA610C614FF47A
:1034A8007C544C6103210468246883F83D10214B47
:1034B8009C4226D1037F4260022BC26026D18368DA
:1034C800BDE8304018472D68E98B090422D492B230
:1034D800EA832168EC8BA4B2EC82CC8B240405D55A
:1034E800CC8BC2F3080204F47E442243CA83CA8BFD
:1034F80092B2CA8200210D4A1964D07682F81BC0A4
:1035080030BD23461146BDE830401847BDE830407D
:1035180013F06EBDE98BC2F3080E92B201F47E413E
:1035280041EA0E01E983D4E75098002000800E405C
:103538000180FFFF290100000023C0E90012C0E953
:103548000233C0E90433C0E90633C0E90833C0E9EF
:103558000A33C0E90C3383638387C0E91033C0E9B9
:103568001233704743682DE9F04FD3E90041814D8C
:103578004FF0B80A22684FF0020822EA01027E4999
:103588002260AA6911407D4A0A43AA6190F810E0B6
:103598007B4A03EB0E0603EB8E0E317C02EB011126
:1035A8008968C1F800A090F811C003EB0C050CF174
:1035B8000A0C95F8241002EB01118968C1F800A0E3
:1035C800817C03EB010903EB810199F838B002EB28
:1035D8000B1BDBF808B0CBF800A0D4F800A05F689C
:1035E8004AEA070AC4F800A0347CDEF814E002EBCB
:1035F80004146468C4F800E095F8244053F82CC01B
:1036080002EB04146468C4F800C0C96B99F8384028
:1036180002EB0412526811609A6C99F84410116018
:103628001A6A317F5B6B116095F830201A600F229F
:103638000368C3F810809A65C27C002A31D072B63C
:10364800C37CDC0708D54FF0E0214469D1F880211C
:1036580022408262C1F88021990708D54FF0E02105
:103668008469D1F884212240C262C1F884215A07B2
:1036780008D54FF0E021C469D1F8882122400263BF
:10368800C1F888211F0708D54FF0E021046AD1F856
:103698008C2122404263C1F88C21DE0655D462B6E3
:1036A8000368384C8268A24259D0324A84609269D1
:1036B8003549C2F30116C2F38262344D51F826101F
:1036C8000132B1FBF2F2AA4231D80022C2600024D2
:1036D80003211C610724596201211A641C661961BF
:1036E800C37C13B3DD0704D5816A4FF0E022C2F82A
:1036F80000119C0704D5C16A4FF0E022C2F80411FA
:10370800590704D5016B4FF0E022C2F808111A07D7
:1037180004D5416B4FF0E022C2F80C11DB0604D54A
:10372800826B4FF0E023C3F81021BDE8F08F1849F1
:10373800A1FB0251090DB2FBF1F2A24288BF01318F
:10374800B1F5817F0DD3134AC0E74FF0E022416AFB
:10375800D2F890310B408363C2F890319FE7C2687A
:10376800B5E70229B1D902394C08220242EA0442DB
:103778000A43ABE700C00F40CFFFFFE3100000088B
:10378800C82B002000093D0068260020FF083D00E6
:1037980083DE1B43FF7F7F000BB1FFF7C1BD70477E
:1037A8004368D3E900120968114200D1704710B587
:1037B80002680446002005211061227C1344187C0D
:1037C80013F0D8FA627C63680521134493F8240047
:1037D80013F0D0FA6368A27C05211344BDE81040B9
:1037E80093F8380013F0C6BA08B5084A08490948DA
:1037F800FFF7A2FE084A09490948FFF79DFE094A52
:1038080009490A48FFF798FE08BD00BF502100206B
:1038180000003A4050980020E020002000C03940C5
:10382800A09800207020002000403940F098002027
:1038380090F8A32090F8A200101A704790F8A230D0
:1038480090F8A3209A4205D95A1C034480F8A22074
:10385800987E70474FF0FF30704700BF70B5094C35
:10386800094D04F1200654F8043F294618461BB1B7
:103878001B681B68984718B9B442F4D1BFF34F8F3F
:1038880070BD00BF20A60020509D002070B5094CD7
:10389800094D04F1200654F8043F294618461BB187
:1038A8001B681B68984718B9B442F4D1BFF34F8F0F
:1038B80070BD00BF40A60020649D002070B5094C73
:1038C800094D04F1200654F8043F294618461BB157
:1038D8001B681B68984718B9B442F4D1BFF34F8FDF
:1038E80070BD00BF60A60020789D0020362921D831
:1038F800124BC26803EB011370B4057C5E68A5B176
:103908000023194601E08D420FD9146801338C4613
:103918000432B442D9B2F6D143686046D3E90021F3
:1039280070BC13680B43136070474FF0FF0C70BCFA
:10393800604670474FF0FF0C60467047C82B002068
:10394800FF282DE9F0410FD0094C06460F4604F137
:103958000C0854F8045B31462846FFF7C7FFFF28D8
:10396800387002D14445F4D100252846BDE8F081DD
:103978001852002036291AD8C36810B4104C027C9B
:1039880004EB01114C68C2B1013A191DD2B201EB26
:10399800820101E08B420CD01A680433A242F9D1AB
:1039A800436801201B7C23605DF8044B70470020AE
:1039B800704700205DF8044B70471046F4E700BFDD
:1039C800C82B002001291AD0C1F1090CBCF1000F45
:1039D8000EDD0321427C12EA01030CD0002301E032
:1039E800114208D001334900DBB2C9B26345F7DBA5
:1039F800FF23184670470A434274184670474FF031
:103A0800080CE7E7032903D843680B44587C704740
:103A1800FF20704701230246807C03FA01F101422E
:103A28005FFA81FC01D00020704740EA0C0118467B
:103A380091747047836800B503F1200C86461A68B4
:103A48005AB18A4203F1040304D09C45F7D10020FF
:103A58005DF804FB01205DF804FB9EF81320196053
:103A6800002AF7D1DEF804200B49137AD268103304
:103A780041F82320DEF804100122084B91F808C011
:103A880010460CF01F0103EB5C1302FA01F19B00D6
:103A980019608EF81320DBE7005C002040380038FE
:103AA80030B411492024114B11480C611C61114C90
:103AB800114A4460114C124D846010240560046161
:103AC800C260104C1048C1E9004002F140000F4CA0
:103AD800C032C1E902400E4C0E480F491C60DA6042
:103AE80030BCC3E901017047649D0020789D002027
:103AF800509D0020B8170020F828006024A6002058
:103B080000C01A4000001B40D417002044A6002023
:103B180000000242F017002064A600200020704731
:103B2800704700BF036D0BB101207047406D00382E
:103B380018BF0120704700BF704700BF10B504468A
:103B4800806D18B118F0F6FC0023A365236D2BB126
:103B580004F11800BDE810400AF0D4BB636D002BD7
:103B6800F6D110BD012BF0B5054695B03DD0022B1E
:103B780040F20A2001F104010CBF03460023684605
:103B88000AF0D8FC129B002B38D05C20002614F0D9
:103B9800E5FD214B04AF0446C0E90036019B3946D8
:103BA800183040F80C3C1D4B40F8103C029B40F884
:103BB800083C9DF80C3000F8043C0AF061FB184BF7
:103BC8004FF47A72A665A360164B6E602B6063682B
:103BD8002E730133AA602C616360134B384600933F
:103BE8000AF090FB284615B0F0BD40F2026304319C
:103BF80068460AF09FFC129B002BC6D1139B002B32
:103C0800C3D14FF47A71074A04AF2B732A602B6132
:103C1800C5E90131E1E700BFF42400205025002068
:103C28006C23002028230020C821002010B504465A
:103C3800806D00B110BD4FF4807018F073FCA06562
:103C4800B0B10022236D02703BB101464FF480727F
:103C580018460AF06BFDA06D10BD636D002BE9D00E
:103C680001464FF4807218460FF0E6FDA06D10BDB6
:103C7800014B1846A36510BDFDB3002038B5056D8E
:103C88006DB10BB1002038BD114628460CF048FD37
:103C98000028F7D02846BDE838400CF0E3BE446D54
:103CA800002CEFD020460FF0C9FA0028EAD02046B1
:103CB800BDE8384010F0FEB98A79A2F150031B061E
:103CC80022D402F26C72F0B54B7985B0046D0133E1
:103CD8000D798E784F78DBB209784CB12046019681
:103CE8000095CDE9027102210CF050FE05B0F0BD3F
:103CF800406D0028FAD001960095CDE902710221A5
:103D080010F01CF905B0F0BD0020704710B504464E
:103D1800006D80B1037813F0700F00D110BD002141
:103D28000CF0FEFC606D0028F8D000220023BDE8EE
:103D380010400FF083BA606D0028EFD090F8313052
:103D480013F0500FEAD000220023BDE810400FF016
:103D580075BA00BF036D10B50C4682B02BB30DF1D8
:103D6800060201A918460CF081F838B3BDF80430F2
:103D7800BDF8062053EA020120D0C2F3451C02F028
:103D88001F00D20AC3F34311400084F801C0A27097
:103D98005A0A013903F01F0302F5EA622070012074
:103DA80061712371A27102B010BD406D30B10DF187
:103DB800060201A90FF0E8F80028D7D1002002B0C8
:103DC80010BD00BF036D10B50C4682B02BB30DF1CA
:103DD800060201A918460CF039F838B3BDF80430CA
:103DE800BDF8062053EA020120D0C2F3451C02F0B8
:103DF8001F00D20AC3F34311400084F801C0A27027
:103E08005A0A013903F01F0302F5EA622070012003
:103E180061712371A27102B010BD406D30B10DF116
:103E2800060201A90FF09EF80028D7D1002002B0A1
:103E380010BD00BF10B5D0F884448EB00A4644B116
:103E480000232146684600930CF0CEF980B90EB0E5
:103E580010BDD0F8881441B1234668460C940FF081
:103E6800ABFC50B900200EB010BD08460EB010BD16
:103E780068460CF00DFC0EB010BD68460FF01CFE35
:103E88000028EFD0E3E700BF70B5D0F884548EB0B7
:103E980016465DB105F5896500230A466846294638
:103EA80000930CF01FF990B90EB070BDD0F88804DB
:103EB8000028F9D000F589640A462B466846214651
:103EC8000C950FF0FDFB48B900200EB070BD3246CE
:103ED800294668460CF0E6FA0EB070BD3246214617
:103EE80068460FF03DFF0028EED0DDE710B5D0F8AA
:103EF80084448EB00A464CB100200123214600902C
:103F080068460CF071F980B90EB010BDD0F888146D
:103F180041B1012368460C940FF04EFC50B90020C3
:103F28000EB010BD08460EB010BD68460BF00CFE72
:103F38000EB010BD68460FF065FD0028EFD0E3E72E
:103F480030B5D0F884448FB00A464CB1002501231F
:103F580004F58961684600950CF04EF80FB030BD45
:103F6800D0F888040028F9D000F589610123684653
:103F78000C940FF077FF0FB030BD00BF10B5D0F82C
:103F880084448EB00A463CB100232146684600931B
:103F98000CF02AF90EB010BDD0F8881431B12346C0
:103FA80068460C940FF008FC0EB010BD08460EB021
:103FB80010BD00BF006990B10368154A1B699342A0
:103FC80025D1036D63B1187810F0080007D0D869BF
:103FD8005B69C01A48BF6FF00040704718467047C9
:103FE800436D002BFAD093F8310010F00800F6D09A
:103FF800186919685A69401A5B6862EB0303B0F1E3
:10400800004F73F10003EAD36FF000407047184780
:10401800F1130000036973B11A68084952698A42AA
:1040280007D1186D08B10CF007BA586D18B10FF028
:10403800EFB8184610474FF0FF3070470D110000D9
:10404800036963B11A68074992698A4208D1186DF1
:1040580008B10CF095BC586D08B10FF0F9BD704768
:1040680018461047CD12000000B5006983B08DF8DE
:10407800071060B10368104ADB68934215D1036DDD
:1040880043B101220DF1070118460CF025FD03B0DC
:104098005DF804FB406D0028F9D001220DF10701FD
:1040A80010F07AF803B05DF804FB01220DF1070166
:1040B800984703B05DF804FBF5120000036923B3C9
:1040C8001968134A10B58C6882B0944214D1186DDF
:1040D80048B101220DF107010CF0DAF890B19DF812
:1040E800070002B010BD586D0028F8D001220DF16C
:1040F80007010EF0BDFFF1E701220DF10701184697
:10410800A047EBE74FF0FF30EBE74FF0FF30704789
:10411800A1110000036D13B1586900217047436D68
:1041280013B1D3E90001704718461946704700BF1C
:10413800036D13B1D86900217047436D13B1D3E9FA
:104148000401704718461946704700BFF0B595B08E
:1041580000224FF47A74244F1831054604A88DF8CC
:104168000C200097CDE90124CDE912220AF036F996
:10417800129B002B2DD05C20002614F0EFFA019B37
:1041880004464660C36004A9029B183040F8083C06
:104198009DF80C3000F8043C144B40F8183C144BC4
:1041A80040F8103C0AF06CF8124B4FF47A72A76092
:1041B8002B606368A66501336E602E73AA602C615C
:1041C80063600D4B04A800930AF09CF8284615B0CC
:1041D800F0BD139B002BCED1064A2B732A602B61AE
:1041E800C5E90134EDE700BF6C230020F42400206A
:1041F8005025002028230020C8210020F8B50546B6
:1042080090F8D00408B90146F8BDD5F88434002BDD
:104218004CD0DC69D5F89004013C002854D00368E0
:10422800DB6B9847E0B1D5F8900478B303681B6C52
:104238009847A8B9D5F8900440B3036801215B6C8E
:104248009847074610B3D5F8840458BBD5F8886456
:1042580033466EB9D5F8900490B900200146D3E7EB
:10426800D5F88404E8B9D5F88834002BF5D007468A
:10427800184610F009FE06463FB1D5F8900428B15B
:10428800036800215B6C984700B1A41BD5F88434FF
:10429800FBB19B794FF40071994089B2A1FB0401ED
:1042A800F8BD00270AF026FF0646E5E7D5F888346A
:1042B800D5F89004B3B1D3F830440028AFD11846EC
:1042C80010F0E2FD0646E0E718460AF013FF06463E
:1042D800DBE7D5F88864002EBFD0D6F83C14A1FBE4
:1042E8000401F8BD0028B8D01C4698E7036D13B147
:1042F80018460CF0A1B8406D08B10EF089BF4FF018
:10430800FF307047836C13B118460CF095B8C06C39
:1043180008B10EF07DBF4FF0FF307047036D33B129
:104328001B7813F0700F14BF012000207047406DF8
:1043380030B190F8313013F0500F14BF0120002035
:10434800704700BF90F8D03463B1D0F8843463B1BB
:104358009A794FF40070D9699040013980B2A0FB76
:1043680001017047184601467047D0F888040028B4
:10437800F9D0D0F83C14D0F83004A1FB0001704704
:10438800036D13B118460BF083BF406D08B10EF0F2
:104398006FBE4FF0FF307047836C00B583B063B1D8
:1043A80001220DF1070118460BF072FF01280CD10C
:1043B8009DF8070003B05DF804FBC06C28B101222A
:1043C8000DF107010EF054FEF0E74FF0FF30F1E772
:1043D8002DE9F043D0F890548DB04DB198462B6834
:1043E80004462846DB699847B0F5405F064604D87E
:1043F800002630460DB0BDE8F0834FF4007018F089
:1044080091F807460028F3D00DF10409B6F1806F42
:1044180002464346294648462ED910F0C3F80646B8
:10442800384618F087F8002EE2D02B682846271D5A
:104438001B6A984794F8C034FF2B21D0D4F8C434B1
:1044480004F5946502932846D4F8C8340393B4F865
:10445800C034ADF8043099E80E000EF047FD94F82A
:10446800B134C4F89054002BC3D1012329463846EF
:104478001A4609F0EDFFBCE70AF0EAFB0646CFE76B
:1044880004F2944594F8CC1428460DF03FFA2846D7
:10449800C4F890540CF030FD0028AAD10123D4F8B8
:1044A800901438461A4609F0D3FFA2E7036D13B1FA
:1044B80018460CF065BA406D08B10FF0C9BB7047DB
:1044C800836C13B118460CF05BBAC06C08B10FF0DE
:1044D800BFBB7047036D13B118460CF0FDBA406DB1
:1044E80008B10FF059BE7047836C13B118460CF031
:1044F800F3BAC06C08B10FF04FBE704700B5836CBB
:1045080083B08DF8071043B101220DF10701184659
:104518000CF0E2FA03B05DF804FBC06C0028F9D097
:1045280001220DF107010FF037FE03B05DF804FB1F
:104538008A79A2F150031B0622D402F26C72F0B5FC
:104548004B7985B0046D01330D798E784F78DBB2E5
:1045580009784CB1204601960095CDE902710421F5
:104568000CF014FA05B0F0BD406D0028FAD00196A1
:104578000095CDE9027104210FF0E0FC05B0F0BD13
:1045880000207047836C53B1187810F008000DD0E4
:10459800D8695B69C01A48BF6FF000407047C36CA8
:1045A800A3B193F8310010F0080000D170471869E2
:1045B80019685A69401A5B6862EB0303B0F1004F4F
:1045C80073F10003F2D36FF0004070471846EDE72F
:1045D800036D53B1187810F008000DD0D8695B69E5
:1045E800C01A48BF6FF000407047436DA3B193F8FD
:1045F800310010F0080000D17047186919685A692D
:10460800401A5B6862EB0303B0F1004F73F10003DB
:10461800F2D36FF0004070471846EDE70369D3B155
:104628000E4810B41C68E46884420FD1186D18B1A4
:104638005DF8044B0CF050BA586D18B15DF8044B96
:104648000FF0AABD00205DF8044B704718462346BA
:104658005DF8044B18470020704700BFF5120000B2
:1046680038B504460C4B806D236018B117F062FF13
:104678000023A365236D04F118054BB1284609F002
:1046880041FE064B2846A36009F03CFE204638BD93
:10469800636D002BF2D1F4E7F4240020C821002038
:1046A80038B504460E4B806D236018B117F042FFF1
:1046B8000023A365236D04F118056BB1284609F0A2
:1046C80021FE084B2846A36009F01CFE20465C2109
:1046D80014F046F8204638BD636D002BEED1F0E7A4
:1046E800F4240020C821002070B5264B0446056933
:1046F8000360002D32D06E68013E6E6076BB2B6879
:10470800214ADB6A934233D1A86D10B117F012FF2A
:10471800AE652B6D43B305F1180009F0F3FD25696B
:10472800E5B12B68194A5B68934228D1184BA86DEC
:104738002B6018B117F0FEFE0023AB652B6D05F159
:104748001806C3B1304609F0DDFD124B3046AB60A8
:1047580009F0D8FD5C21284614F002F820461421FF
:1047680013F0FEFF204670BD6B6D002BD3D1D6E74A
:1047780028469847D3E76B6D002BE3D1E5E7284639
:104788009847EBE7282300205D090000C1140000CA
:10479800F4240020C821002030B4029C11469C4615
:1047A80034B1012C1CD0022C0ED0002030BC704734
:1047B800056DF5B14FF0FF33934274EB0C04F4D35D
:1047C800284630BC0BF0ACBF026D0AB3D369591848
:1047D8004CF10003002BE8D1104630BC0BF0A0BF11
:1047E800026D62B1536959184CF10003002BDCD1FA
:1047F800F2E7406D0028D8D030BC0EF01FBD406DE8
:104808000028D2D0D0E900238A184CEB0303F3E741
:10481800406D0028C9D0D0E9042330BC8A184CEB7D
:1048280003030EF00BBD00BF70B5244B04460569A9
:104838000360002D32D06E68013E6E6076BB2B6837
:104848001F4ADB6A93422FD1A86D10B117F072FE90
:10485800AE652B6D23B305F1180009F053FD2569EA
:10486800E5B12B68174A5B68934224D1164BA86DB3
:104878002B6018B117F05EFE0023AB652B6D05F1B8
:104888001806A3B1304609F03DFD104B3046AB6029
:1048980009F038FD5C21284613F062FF204670BD00
:1048A8006B6D002BD7D1DAE728469847D7E76B6DB1
:1048B800002BE7D1E9E728469847EFE728230020AF
:1048C8005D090000C1140000F4240020C821002064
:1048D800F0B5D0F8906485B00446002E42D090F828
:1048E800D05490F8D13485B1FE2B63D094F8D2041B
:1048F80036283DD93368694630469B6C984705464B
:10490800284684F8D05405B0F0BDFE2B26D090F888
:10491800D204362849D994F8C034271DFF2B2DD04E
:10492800D4F8C43404F59466D4F8C8240193304606
:10493800B4F8C0340292ADF800306B460ECB0EF0DE
:10494800D5FA94F8B134C4F8906463B901233146B8
:1049580038461A4609F07CFD054604E01F4B9B6863
:104968009B03D8D40025284684F8D05405B0F0BD60
:1049780012F0EEF9051E18BF0125F4E704F294467B
:1049880094F8CC1430460CF0C1FF3046C4F890645B
:104998000CF0B2FA0028E6D10123D4F89014384676
:1049A8001A4609F055FD0546DDE712F0D1F9002851
:1049B800B1D1D7E7336830465B6D9847421C034650
:1049C80094D00028CFD194F8D124FE2ACAD103214B
:1049D8002E201D4612F0CEF9C5E700BF0080004228
:1049E80018484FF0290C184A0023184910B4C0F889
:1049F8009424072280F8B1C44FF0FF0CC0F8A81423
:104A08004FF47F41124CC0F8AC24124AA0F8D014DD
:104A1800A0F89C3480F8B53480F8CC3480F8D2C43F
:104A28000460C0F8A0240C490C4A5DF8044BC0F897
:104A38008434C0F88834C0F8903480F8BC3415F059
:104A480031BA00BF7C930020D425002000093D0026
:104A58007425002008220020590900005052002027
:104A680080207047704700BF0846114600F058B8CC
:104A780003680B4A5B6800B5934283B08DF8071052
:104A880007D101210DF1070000F04AF803B05DF8E5
:104A980004FB01220DF10701984703B05DF804FB00
:104AA80089180000024B0021024AC3E9002170471F
:104AB800D8A400205423002010B5044612F0AAF907
:104AC800204610BD002A38B505460C461BDB02B34C
:104AD800AB1C611E5000114C03EB420211F801CFD0
:104AE80002334FEA1C1E0CF00F0C934214F80EE030
:104AF80003F804EC14F80CC003F803CCEED12844F6
:104B08000023037038BD08461AF08AF80246002AC6
:104B1800DED128460023037038BD00BFFC570020B3
:104B280030B50E4D0C4683B001462B785BB1019031
:104B380028461AF075F8224601992844FFF7C2FF63
:104B4800204603B030BD4F232846224600F8013BDB
:104B5800FFF7B8FF204603B030BD00BF8CB200207D
:104B6800024A0349034815F09DB900BF505200207E
:104B7800D9180000F45700202DE9F843214B0546C9
:104B88001C68013C1C6014B12846BDE8F883DFF8B6
:104B980080801D4F98F800303E68D3B906F10408AC
:104BA80006F17004203E04F11C0013F089FD04F1A5
:104BB800100013F085FD201D303C13F081FDB44238
:104BC800F1D1404613F07CFD002328463B60BDE848
:104BD800F883306801F0EAFB88F80040B046814667
:104BE8000A4948F8044B404613F0A6FDB9F1000FF6
:104BF800D6D0484600F02AFC044615F0EBFE0460C7
:104C0800CEE700BFF49D0020F89D0020A01E0020E4
:104C1800F9B3002070B50D4D2B7803B970BD04466B
:104C2800006801F0C3FB00230646094944F8043B29
:104C380020462B7013F080FD002EEFD0304600F098
:104C480005FC044615F0C6FE046070BDF9B30020EB
:104C5800A01E00200B4A38B51368591C11604BB1CF
:104C6800094C0A4A0A490B4815F01CF90A4B2268F4
:104C78001A6038BD094D044C28461DF03DFE2560DC
:104C8800EFE700BFF49D0020F89D0020505200205F
:104C980099190000349F0020189F0020FC9D0020D7
:104CA800704700BF012801D90020704710B504469D
:104CB80082B0084603F0C6FC034601A9E0B201939E
:104CC80000F0CAF9012002B010BD00BF024B00225B
:104CD8000249C3E900127047049D002044260020C1
:104CE80000F000B8014B1868704700BF94B300206B
:104CF80038B1044B421E012A98BF18460368DB6886
:104D0800184770471042002008B5EFF3058303B930
:104D180008BD13460A460146074818F073F9074BC1
:104D280091220749074818F06DF9002019F07AFD1B
:104D380013F05EFC12F04AFE7C3600208C36002010
:104D4800B8360020E036002008B500F009F800B1B8
:104D580008BDBDE808401DF0DBBD00BF00F06CB821
:104D6800064BD3F8800010F4405006D0A3F540332A
:104D7800186880F40050C0F34030704700C00F40FE
:104D8800284B1A682DE9F04FD20483B0824601916E
:104D980007D54FF48051244A1960D96F1B6C002342
:104DA8001360019E66B3DFF88080DFF888901F4D9E
:104DB800D8F80070A5EB09051A4C2FBB236813F42B
:104DC800A05FFBD02368DB0422D4194B03F1400118
:104DD800EA5843F8042F8B42FAD1236C49464027FE
:104DE800B742BB46504628BFB3465A46A7EB0B0707
:104DF80019F066FEB6EB0B06DA44C8F80070DCD191
:104E0800019803B0BDE8F08FC7F140014944E7E7D6
:104E1800019A4FF48053921B01920198236003B0CA
:104E2800BDE8F08F00C00C406CB2002044C00C40BC
:104E3800FCFF1F2000002020042100B583B00DEBEB
:104E48000100FFF79DFF032803D9019803B05DF81F
:104E580004FB15F0BFFD0B230360019803B05DF858
:104E680004FB00BF034A1368013B13600BB9024AF5
:104E7800136070479C9E0020A09E00200A4A136879
:104E8800591C10B511604BB1084C094A09490A4828
:104E980015F008F8094B22681A6010BDFFF754FF97
:104EA800024C074B2360F0E79C9E0020A09E002048
:104EB80050520020851C0000509F00204C9F00206D
:104EC800A49E0020074B70B51C680546013C1C6079
:104ED8000CB1284670BD044E30681DF01DFD2846F3
:104EE800346070BD989D00209C9D00201D4A0020C4
:104EF8001D49136810B51D4CC1E90040591C1160CB
:104F0800D3B11B4A1B491C4814F0CCFF1B4A136839
:104F1800591C1160F3B1164A19491A4814F0C2FF16
:104F2800194A1368591C11606BB1114A174918487E
:104F3800BDE8104014F0B6BF164C20461DF0DCFC4E
:104F4800154B1C60DDE7154C20461DF0DDFC144BAD
:104F58001C60EAE7134C20461DF0E6FC124B1C606F
:104F6800D9E700BFF49D00200C9D002044260020B6
:104F78005052002099190000389F00209C9E002064
:104F8800851C0000549F0020989D0020E51C00000F
:104F9800209F0020FC9D0020F89D0020A09D00205F
:104FA8009C9D0020A49E0020A09E00201A4A136801
:104FB800591C10B51160D3B1184A1949194814F091
:104FC80071FF194A1368591C1160F3B1134A174944
:104FD800174814F067FF174A1368591C11606BB122
:104FE8000E4A15491548BDE8104014F05BBF144C33
:104FF80020461DF081FC134B1C60DDE7124C204657
:105008001DF082FC114B1C60EAE7114C20461DF094
:105018008BFC104B1C60D9E7F49D002050520020F7
:10502800991900003C9F00209C9E0020851C0000D0
:10503800589F0020989D0020E51C0000249F002018
:10504800FC9D0020F89D0020A09D00209C9D002034
:10505800A49E0020A09E0020012800D9704721B1FD
:10506800054B0A6843F820207047044A024B12682F
:1050780043F82020704700BFE4A5002068310020D5
:1050880030B54FF0000E00F00105714505DD25B182
:1050980010F8013B013963F31F2E012927DD02397E
:1050A80000234C0804F1010C00EB4C0C30F8022BE7
:1050B80084451344FAD1C4EBC47401EB44010129BB
:1050C80005D19CF8002062F3070E1FFA8EFE9E445D
:1050D8001FFA8EF303EB1E4398B200EB134025B181
:1050E8000302C0F307209BB2184380B230BD844648
:1050F8000023E4E708B5FFF7C3FFC04380B208BD4B
:105108002DE9F0410E46154604464FF46B713A4AB4
:105118003A48FFF7F9FD002E41D0002C68D0DFF89F
:10512800E4C0DCF80070002F2ED0BC4239D03846DD
:1051380001E0844235D0C0680028FAD1002D33D070
:1051480036683B4601E0DB68C3B19C42FBD0617A1C
:10515800490702D55A7A5207F5D45A8AAA42F2D197
:105168001A68B24218BF002A01D0002EEBD16FF0A6
:105178000700BDE8F0813668AEF800502660658209
:1051880038B10020BDE8F081002D2FD0336865824A
:1051980023600020E760CCF80040BDE8F081184E9D
:1051A800BBE70120002DCBD1DFF85CE04FF4804154
:1051B8004FF6FF78BEF80050454514D00135ADB222
:1051C800002FD8D03B4602E0DB68002BD3D05A8AA8
:1051D800AA42F9D1013989B20029EDD16FF007004F
:1051E800AEF80050CEE74FF44045E9E73846DBE734
:1051F8006FF00F00C6E700BF702700208C3F00202B
:1052080068310020B4B30020465A00202DE9F04F41
:1052180085B00D46174640F2CF21DDF83890044698
:10522800DDF83CA098464B4A4B48FFF76DFDB9F1B5
:10523800000F18BFBAF1000F0CBF01210021002F89
:1052480008BF41F00101002D08BF41F0010100290C
:105258006BD1002C69D0628A002A43D02A894FF684
:10526800F7739A4264D80821284601F013FA0028F7
:105278004CD12E467389072B5DD9628A98FA98F823
:10528800736852BAA3F802801A8000229A71DA7100
:10529800227C12071DD4328952BA9A803B6803F0E7
:1052A800F003E02B30D0E37A1120CDF80890A27AF1
:1052B80051460190304600923A4602F0A3FFAE42B2
:1052C800834602D0304601F01DFA584605B0BDE8C5
:1052D800F08F3A6802F0F002E02A0ED0328952BA12
:1052E8009A80E0E721462046FFF70AFF8346002818
:1052F800B4D0584605B0BDE8F08F727B42F0040286
:105308007273328952BA9A80637FCDE74FF4207264
:105318000821242001F060FA064648B12B89002BA9
:10532800A8D0294601F0A4FBA4E76FF00F0BCCE747
:105338004FF0FF3BC9E7084B40F20D3207490848D8
:1053480017F060FE002019F06DFA0120FFF7D0FC7D
:1053580012F03CFB8C2700208C3F002000400020EE
:10536800E036002070B582B0069C002C18BF002AD9
:105378000CBF4FF0010C4FF0000C002908BF4CF097
:10538800010CBCF1000F13D190B1056835B9254661
:10539800CDE90045FFF73AFF02B070BD05F0F00C0B
:1053A800BCF1E00FF3D02668B54204D10546EFE71B
:1053B8006FF00F00F0E76FF00300EDE710B504465B
:1053C800114A40F2A3411148FFF79EFCD4B1104B9B
:1053D8001A68A24206D03AB1D3682BB1A34209D0C9
:1053E8001A46F8E7E2681A6021460020BDE8104036
:1053F80003F0B6B8E36821460020D360BDE810404A
:1054080003F0AEB810BD00BF082700208C3F002075
:10541800B4B3002010B1026801B102B970470B683B
:10542800002BFBD0084B1B68002BF7D010B400E012
:1054380002681C68944201D10A681A60DB68002B74
:10544800F6D15DF8044B7047B4B3002000F11003A7
:10545800DBB2102B04D8034B404253F820007047AE
:1054680005207047AC2F002008B500F091FF0023FD
:1054780080F8513008BD00BF08B500F089FF00234F
:1054880080F8703008BD00BFF0B50446006883B0EE
:105498000F4616461D46002834D0A3880289B7F85F
:1054A8000001043013FA80F0904237DC3946204678
:1054B80000F0D0FE08B103B0F0BD76BAA38802228E
:1054C8000DF106012068ADF8066001F069FB0028BF
:1054D800F1D1A3880222002D0DF1060113440CBF5F
:1054E8004FF480704FF4C0709BB2ADF80600A380F3
:1054F800206801F055FB0028DDD1A3880233A38082
:1055080003B0F0BD4FF4207240F2AA51382001F0E8
:1055180063F9206010B10C23A380BFE74FF0FF3080
:10552800C9E700BF2DE9F043044685B000680D4681
:105538001646DDF834800F9F002853D0A288B5F8AE
:1055480000C10CF10A0C1FFA8CFCB8F1000F03D053
:105558000E998C441FFA8CFC27B1B7F800118C44C3
:105568001FFA8CFC94440289944549DC324629464A
:105578002046FFF789FF0C9B03A920681ABAA38865
:105588000392042201F00CFB48BBA68806F1060929
:105598001FFA89F9A4F80490B8F1000F0BD00E9BFC
:1055A800414620689DB24B462A4601F0F9FAB0B947
:1055B800A3881D44A58027B13946204600F04AFE3D
:1055C80068B9A188331D02222068A1EB09019BB2AA
:1055D80049BAADF80A100DF10A0101F0E1FA05B077
:1055E800BDE8F0834FF4207240F2AA5138200193AD
:1055F80001F0F2F8019B206010B10C22A2809EE716
:105608004FF0FF30EBE700BF10B5C2B0044601A869
:1056180000F0DEFC0123FF2201A92046FFF734FF3A
:1056280042B010BD10B5C2B00446012201A800F076
:105638005DFD0123FF2201A92046FFF725FF42B0A7
:1056480010BD00BF30B5ADF5077D0D4604461146C7
:1056580004A8002200F04AFD45A800F0F3FC2B7BCB
:10566800DBB1E38873B10A220023204604AC45A9C4
:10567800CDE90023CDE902340C22FFF753FF0DF5E5
:10568800077D30BD0C2245A92046FFF7FDFE002806
:10569800F5D101230A22E380E6E741F29412E3E719
:1056A800F0B5C7B00D4604461046164600F070FE29
:1056B800014605A800F08CFC2B7BDBB1E38873B1B5
:1056C8000A27204601960424AB7A0025012205A961
:1056D8000097CDE90245FFF725FF47B0F0BD01224D
:1056E80005A92046FFF7D0FE0028F6D101230A2796
:1056F800E380E6E77827E4E7F0B5ADF5097D1746DE
:105708000D4601221946044606A81E4600F0EEFC86
:10571800394647A800F05CFC2B7B33B30127E388AC
:105728008DF81E72BBB10A2347AA009306A90392FB
:105738002122B6F88E01AB7A45BA204604ACADF802
:10574800145006250194029500250495FFF7EAFEFA
:105758000DF5097DF0BD212206A92046FFF794FE2C
:105768000028F5D10A23E780DEE77823DCE700BFCD
:1057780070B51446ADF5067D0E4600222146054655
:1057880004A800F0B3FC2146012245A800F0AEFCB5
:10579800337BDBB1EB8873B10A22002345AC04A943
:1057A8002846CDE90023CDE902340C22FFF7BAFEE2
:1057B8000DF5067D70BD0C2204A92846FFF764FE8E
:1057C8000028F5D101230A22EB80E6E77822E4E7F6
:1057D80070B5ADF5067D1446054610460E4600F038
:1057E800D7FD014604A800F0F3FB214645A800F0C8
:1057F80087FB337BE3B1EB887BB10A2204ACB37A35
:1058080045A900920394002428460C22CDE90144BE
:10581800FFF788FE0DF5067D70BD0C2245A92846C8
:10582800FFF732FE0028F5D101230A22EB80E5E7D5
:105838007822E3E730B50C46C3B089B105460A784B
:1058480001A800F0B1FC002394F84E2101A92846D4
:10585800FFF71AFE10B9EB880133EB8043B030BD77
:10586800084643B030BD00BF70B51446C6B001222B
:1058780005460E4605A8214600F038FC4FF4827212
:105888000021204617F0DAF9D4F884311BB1D4F896
:10589800881120469847337BE3B1EB887BB10A2314
:1058A80000931022B37A05A901942846B4F8004160
:1058B800029400240394FFF735FE46B070BD102211
:1058C80005A92846FFF7E0FD0028F6D10123EB8063
:1058D8000A23E5E77823E3E72DE9F04F154687B07B
:1058E8000C46074600F054FD0190A1692846FFF7D1
:1058F800A1FF064618B1304607B0BDE8F08F38461C
:1059080000F046FDA37B8046DB0600F1C38008F16A
:105918003C0A04F10F0908F148085AF8041F19B1A4
:1059280099F80030D8065DD4C24509F10109F4D1CF
:10593800A37C13F0010240F0C48003929A0762D45A
:10594800019B04F11409DDF80C8003F13C0ACB46F5
:105958004833CDE9046726465446029354F8047F39
:105968004FB19BF80020D30659D4900665D4510650
:1059780071D412067ED4029B0BF1010B9C42EDD12F
:105988003446059F049E94F90230CDF80C80002B14
:1059980031DB6B89A346039ADDF808801A446A81D3
:1059A8005AF8044FB4B199F80020930604D550066C
:1059B80040F19180110677D512F0600F9BF81230F4
:1059C80002D113F0050F05D0DB0703D43B68002B89
:1059D80040F08F80C24509F10109E1D1304607B096
:1059E800BDE8F08F2846FFF71DFE00284DD1EB8853
:1059F8000133EB8098E72B894246A346DDF80880FF
:105A08001A442A81CCE73A4621462846FFF7E0FEA9
:105A180000283AD1039B01339BB2039390E73A469F
:105A280031462846FFF70EFE78BB9BF8002008F1A8
:105A3800010890061FFA88F899D53A463146284653
:105A4800FFF796FE08BB9BF8002008F101085106F5
:105A58001FFA88F88DD53B46019A31462846FFF74C
:105A68004BFE90B99BF8002008F1010812061FFAB6
:105A780088F880D53A4631462846FFF7F5FE20B922
:105A880008F101081FFA88F875E70646304607B09E
:105A9800BDE8F08F01462846FFF7B6FD0028F4D18F
:105AA800EB880133EB8032E7224659462846FFF758
:105AB800DBFE0028E9D1AB890133AB8199F80020DE
:105AC8007AE73A4621462846FFF7EAFD0028DCD166
:105AD800A37C012231E72346019A59462846FFF75D
:105AE8000BFE0028D1D1AB890133AB8199F8002096
:105AF80060E73A4659462846FFF7D2FD0028C4D148
:105B0800AB890133AB8165E770B58EB005460E46AB
:105B18002422002105A817F091F805AA2946304645
:105B2800FFF7DAFE044680BB059890B3BDF81A303B
:105B380002A9AA785BBA8DF80B408DF80A20BDF847
:105B48001C20ADF80C30BDF81E3052BA5BBAADF867
:105B58000E20BDF82020ADF810302B8852BA5BBA61
:105B6800ADF812200C22ADF8083000F0C5FFBDF8E2
:105B78001810059800F0BEFE00F012FC2B892A1DB3
:105B880005990096FFF7EEFB0446059808B100F06A
:105B9800B9FD20460EB070BD38B5054600F0F8FBDB
:105BA80090F85130044663B32946274801F03EFC7B
:105BB8002A4625494FF47A7001F00AFC012294F82C
:105BC800523084F851204BB32946204801F02EFC6E
:105BD8002A461E49FA2001F0FBFB012294F8703096
:105BE80084F8522033B32946194801F01FFC2A468D
:105BF800174947F2305001F0EBFB012384F870306D
:105C080038BD2A4610494FF47A7001F0E1FB0122B1
:105C180094F8523084F85120002BD5D12A460B49EC
:105C2800FA2001F0D5FB012294F8703084F8522054
:105C3800002BD8D12A46064947F2305001F0C8FB5C
:105C4800012384F8703038BD89220000752A0000CD
:105C58009922000038B5054600F09AFB002290F81A
:105C6800503080F8522003B938BD044629465430D4
:105C7800FFF74AFF03460028F6D12846A4F8543017
:105C880084F85630A4F85E30A4F8683084F86A3096
:105C980084F85030C4E91833BDE83840FFF77CBFBA
:105CA8002DE9F84F994680468A461646B9F1060FFF
:105CB8004046514639D000F0ABFF04460AF10105D1
:105CC800404604F0C001A7B2ADB204F1010BC029EF
:105CD8003A462B463AD03F2C27D8B6F800C104EBF9
:105CE8000C010CF1010E0BEB0C0A1FFA8EFEFF29BA
:105CF80006EB0E0119DCECB1BAF1FF0F15DC06F862
:105D08000C4005EB070AA6F800E100F0BFFE874249
:105D18001FFA8AFA3CD1B6F80031B9F1060F51469C
:105D280040463B44A6F80031C5D14FF6FF752846DA
:105D3800BDE8F88FBCF1FF0FF7D80CF1010306F8A6
:105D48000C402846A6F80031BDE8F88FB8F80830AE
:105D5800AB42EAD9294600F05BFF230203F47C53E7
:105D6800184303B281B20B2BDFDDB8F808308B4241
:105D7800DBD909F1010332464046FFF791FF4FF6A0
:105D8800FF739842D1D00AF1020A1FFA8AF5CEE7CA
:105D9800B6F800314FF6FF75013BA6F80031C6E7AB
:105DA8002DE9F04FC7B00D88934604464FF4827230
:105DB800029105A80021CDF800B016F03FFF00239E
:105DC8002946204605AAFFF76BFF4FF6FF73984256
:105DD8003ED0029B009E1B88B6F80081C01A039330
:105DE800C3B20193B8F1000F2ED05FFA88F9BDF85D
:105DF80014B10027ABEB090A3C465FFA8AFA07E0C0
:105E08003278013214441644E7B247453C461BD267
:105E1800A9EB0402D2B2022AF2D90AEB04055A45C8
:105E2800EDB2EDD8009BA91C1819019B994205AB4E
:105E380003EB050108DA16F035FE0028E0D1039BD4
:105E4800B846029A2B441380404647B0BDE8F08F0D
:105E5800009BB3F80081404647B0BDE8F08F00BF13
:105E68003F2A23D838B514460546AAB1B0F8000130
:105E7800531C50FA83F3FF2B1BDC2A54013080B2E9
:105E8800A5F80001284418F01BFEB5F800310020E1
:105E98002344A5F8003138BDB0F80031FF2B08D8ED
:105EA8005A1CEC542046A5F8002138BD6FF00500B7
:105EB80070476FF0050038BD38B5B1F80051044699
:105EC80085B1B0F800016B1C0344FF2B14DC2A4693
:105ED800204418F0F5FDB4F8003100201D44A4F862
:105EE800005138BDB0F80031FF2B05D85A1CC554F5
:105EF8002846A4F8002138BD6FF0050038BD00BF62
:105F080000285BD0F0B50E46B1FA81F183B049099B
:105F1800002E50D0351D2B4F4FF48272044616F0D8
:105F28008DFE042115F8013D3A460DEB010018F0ED
:105F3800E5FE01A818F074FE024601A92046D2B277
:105F4800FFF78EFF034680BBB542EAD1B4F80011D3
:105F5800F7292DD807204A1C605492B21A49A4F890
:105F68000021A5180868A0508A88AA808A79AA7191
:105F7800B4F80011CA1D92B2FA2AA4F8002117D861
:105F880004200831A05489B2104AA4F800111068FE
:105F98006050B4F800110A1D92B2FF2AA4F800213B
:105FA80006D80531A354A4F80011184603B0F0BD73
:105FB8006FF00503F9E76FF00F03F6E76FF00F03D3
:105FC80018467047F8310020FC31002004320020C8
:105FD80038B50D464FF482720021044616F02EFEA5
:105FE80055B3284618F01CFE024629462046D2B270
:105FF800FFF736FF034608B1184638BDB4F800115C
:10600800F92919D805204A1C605492B20C49A4F801
:106018000021A5180868A0500A792A71B4F800115F
:106028004A1D92B2FF2AA4F8002105D80631A354CC
:106038001846A4F8001138BD6FF00503DCE700BF6F
:10604800F031002038B504464FF482720021234D08
:1060580016F0F4FD22460921214B02F8011B03CB5F
:10606800C4F8010093F800C007232868516082F83B
:1060780008C00422A979C4F80B00A3721223A888C7
:106088006174A4F80F002046A4F800311549FFF701
:10609800E7FE034608B1184638BDB4F80011F929DF
:1060A80018D805204A1C605492B20F49A4F8002160
:1060B800A5180868A0500A792A71B4F800114A1D79
:1060C80092B2FF2AA4F8002104D80631A354A4F8F8
:1060D8000011E0E76FF00503DDE700BFE0310020C5
:1060E800D4310020E8310020F031002070B514468A
:1060F80082B00E464FF482720021054616F09EFDCE
:1061080064B106F582710846019118F089FD01997C
:10611800C2B22846FFF7A4FE034660B906F5A2718D
:106128000846019118F07CFD0199C2B22846FFF794
:1061380097FE034610B1184602B070BDB6F88C2120
:10614800174B53F822100846019118F069FD0246D2
:1061580001992846D2B2FFF783FE03460028EAD108
:10616800B5F80011F92918D805204A1C685492B2CC
:106178000C49A5F80021AC180868A8500A792271C2
:10618800B5F800114A1D92B2FF2AA5F8002104D8DB
:106198000631AB54A5F80011CDE76FF00503CAE747
:1061A800382F0020F031002070B5154682B00C461B
:1061B8004FF482720021064616F040FD55B1204684
:1061C80018F02EFD024621463046D2B2FFF748FEAF
:1061D800034630B904F140013046FFF76DFE03462F
:1061E80010B1184602B070BDB4F84C21174B53F8E3
:1061F80022100846019118F013FD02460199304615
:10620800D2B2FFF72DFE03460028EAD1B6F80011F6
:10621800F92918D805204A1C705492B20C49A6F8DE
:106228000021B4180868B0500A792271B6F8001134
:106238004A1D92B2FF2AA6F8002104D80631B354A9
:10624800A6F80011CDE76FF00503CAE7382F002044
:10625800F03100202DE9F04391F8023183B00E4669
:106268000546B1F800712BB1002F3AD1002003B0D8
:10627800BDE8F08300F10C04984600F1200908E01D
:10628800FFF78EFDB84202D2BDF8068007464C459E
:106298000ED034F8023FADF80630002BF7D028684E
:1062A80032460DF106010028EAD1B6F80001E9E707
:1062B800CFB9B8F1000FD9D019490222AB8848EA02
:1062C8000101286849BAADF806100DF1060100F081
:1062D80067FC0028CBD1AB880233AB8003B0BDE8A4
:1062E800F0834FF00008AB8831463A46286800F042
:1062F80057FC0028BBD105F10C0333F8022F4AB133
:1063080001300A28F9D1AB881F44AF80B8F1000FDB
:10631800D2D1ABE7AB8805EB4000C381F4E700BFFF
:1063280000C0FFFF194A00234FF0100C10B4127878
:1063380000EB8202D269CB608B608B6181F80EC062
:10634800C1E90033C1E90433136C0BB181F80FC004
:10635800546C1CB14FF0100C81F810C0946C1CB137
:106368004FF0100C81F811C0006808B10120887442
:106378000BB140230B75536C0BB140234B75936CD9
:106388000BB140238B755DF8044B704701B40020B6
:10639800024B1B7800EB8300C069704701B40020F2
:1063A800014B1868704700BFB0B100202DE9F041DB
:1063B8000446204A40F683111F48FEF7A5FC54B353
:1063C800DFF8888098F8003004EB8303DE69FEB1BB
:1063D80006F13C0506F148072146184801F026F861
:1063E80055F8040F08B100F09BFFBD42F8D11449DD
:1063F800204601F025FC304600F092FF98F8003066
:1064080000220633104604EB83046260BDE8F08185
:106418006FF00500FAE7084B40F6841209490A486C
:1064280016F0F0FD204618F0FDF90120FEF760FC9B
:1064380011F0CCFA582700200C320020113300004C
:10644800B44000203C320020E036002001B4002097
:1064580010B5044688B0224A40F6A4212148FEF728
:1064680053FC5CB1204B1B7804EB8303DB692BB135
:1064780093F84D20032A01D922680AB908B010BD43
:1064880000220321012005928DF81610196C039241
:1064980001928DF80E0002920492CDE9062211B104
:1064A800F0228DF818205A6C12B1F0228DF81920BC
:1064B8009B6C13B1F0238DF81A3041F2E9410B4A75
:1064C800842301A8ADF80C10214602928DF80630FD
:1064D800FFF71AFB204608B0BDE81040FFF75CBB89
:1064E800D82600200C32002001B40020E00000FB78
:1064F800354B30B51B7889B0044600EB8303DD6962
:1065080095F84D30022B20D9033B012B1BD895F869
:106518004C204AB9042385F8CC2085F84D302B4B04
:106528001B680BB1012198472046FFF791FF95F8AA
:106538004C300133DBB2012B85F84C3039D94FF49C
:10654800A063A5F84C3009B030BD0368ABB995F825
:106558004C30022B0CD81BB195F8CC30012B2DD028
:1065680022461B49FA2009B0BDE8304000F030BF90
:106578004FF44073A5F84C30F2E701A9FFF7D2FEBB
:1065880041F2E94300220846ADF80C302146114B90
:10659800ADF804200293FFF7B7FA95F84C300028BD
:1065A800D7D101330222DBB285F84D2085F84C3073
:1065B800CFE7224606494FF47A70D4E722460449C9
:1065C80041F28830CFE700BF01B40020ACB1002011
:1065D80011330000E00000FB08B540F24632064BDC
:1065E8000649074816F00EFD002018F01BF9012097
:1065F800FEF77EFB11F0EAF9343500205C35002007
:10660800E0360020F8B522F04003012B10D10646F1
:10661800082014460D469FB201F08EFF38B10023C2
:106628004660058145810473C78103604373F8BDE3
:10663800074B4FF4A6720749074816F0E3FC002001
:1066480018F0F0F80120FEF753FB11F0BFF900BF76
:10665800343500201C340020E0360020033020F0C0
:10666800030010B501EB000EBDF80CC0029CE64516
:106678000DD804B104441846002344600224036082
:1066880001230181418102734473C38110BD00203D
:1066980010BD00BF10B50446F8B1B1F5803F0AD26D
:1066A80059B18AB2038913449BB29A4203D890F92C
:1066B8000C00002803DB012010BD084610BD6068EF
:1066C800411A04F110008142F5D3B4F80AC0002041
:1066D800616062442381628110BD074B4FF4F272FE
:1066E8000649074816F08EFC204618F09BF8012052
:1066F800FEF7FEFA11F06AF934350020F433002071
:10670800E0360020F8B50546002849D0002608E004
:106718002C69002C3AD02846A0470136F6B2D7B1EA
:106728003D46AC7B1CB3013CE4B2AC739CB96B7BBB
:106738002F6813F002042A7BEAD102F00F02022A22
:106748000BD0012A0ED032BB0136284600F0E8FDF6
:10675800F6B2002FE4D13046F8BD2946092001F0F1
:10676800FFFEDAE72946082001F0FAFED5E7144BC8
:1067780040F2F5221349144816F044FC204618F05C
:1067880051F80120FEF7B4FA11F020F90C4B40F251
:1067980003320E49EFE70A4B40F213320C49EAE79D
:1067A800074B4FF438720B49074816F02BFC284664
:1067B80018F038F80120FEF79BFA11F007F900BF2E
:1067C800343500207C340020E0360020943400204A
:1067D800B8340020F4330020B2F5C17F2DE9F84326
:1067E80081460F4641D012D822F04003012B37D002
:1067F8003A4B40F229123A493A4816F003FC002075
:1068080018F010F80120FEF773FA11F0DFF8B2F56E
:10681800207FEDD1C31CCA1C23F0030322F003021E
:10682800134403F11000834228BF03469A4212D84A
:1068380000F058FD804680B1814400212A4A09F1C0
:1068480013030781016023F003034781C26043609B
:106858004046BDE8F8834FF000084046BDE8F8839D
:106868000020BDE8F843FFF7CDBE00221FFA80F9EB
:1068780040F2EC551D4C904606E03260FB1A4FF092
:1068880000099FB2002FE8D00920164601F054FEF7
:106898000246C0B109F1030300EB0901002017818A
:1068A80023F0030313311060EB1A21F00301D460C5
:1068B8009BB25160BB4228BF3B465381B8F1000FE1
:1068C800DBD19046DAE70A4B01211970B8F1000FC5
:1068D800C1D040469046FFF715FFBEE7343500208B
:1068E80000340020E0360020800001008200010012
:1068F80002B40020F8B50446002858D003898B421A
:106908001DD90D46C91A06E02289EB1A0A449DB220
:10691800228124686CB36389AB42F5D3227B1207CA
:1069280005D1AB4203D0637B13F0020608D0206880
:106938006581258108B1FFF7E5FE00232360F8BDD6
:10694800636820461B1B591900F0CAFC0746F8B1BA
:106958008442ECD0184B40F2C1121849184816F07E
:1069680051FB304617F05EFF0120FEF7C1F911F028
:106978002DF8114B40F2B1121249114816F042FBA2
:10698800204617F04FFF0120FEF7B2F911F01EF86C
:10699800094B40F2BF120C49094816F033FB384640
:1069A80017F040FF0120FEF7A3F911F00FF8024B92
:1069B8004FF4CD720549E0E7343500201835002042
:1069C800E0360020E4340020FC340020CC340020E1
:1069D80030B108B5837B0133DBB283730BB108BDDB
:1069E8007047FFF7F9FD00BFD0B110B5B1FA81F4D7
:1069F8006409A1B1884214D0036843B10289B1F88F
:106A080008C06244028118461B68002BF6D102892F
:106A18004389934214D10A8901601344038110BD4C
:106A280070470F4B40F25F320E490F4816F0EAFAF2
:106A3800204617F0F7FE0120FEF75AF910F0C6FFBE
:106A4800074B40F267320949074816F0DBFA002085
:106A580017F0E8FE0120FEF74BF910F0B7FF00BF72
:106A68003435002030340020E03600204C3400203B
:106A780010B50C46FFF7B8FF24B1A37B0133DBB296
:106A8800A37303B110BDFFF7A7FD00BF2DE9F041C7
:106A980060B3B1FA81F68846760939B305461746D8
:106AA80022B927E093B22D68EFB1E5B108EB0600F3
:106AB800B5F80AC01BB19C45A3EB0C02F2D9ACEBAC
:106AC800030C69681FFA8CF41944BC4228BF3C4681
:106AD8002246264417F0F4FF3A1B0023B6B297B2B9
:106AE8002D68002FE1D13046BDE8F0810026304600
:106AF800BDE8F0811646F6E7B9B32DE9F843B0FAD8
:106B080080F705467F09F0B103899146934217D370
:106B18009AB18846164600E0C5B16C8908EB0701B2
:106B28006868B44228BF34462246274417F0C8FF95
:106B3800361B2D68F0D1B9451AD10020BDE8F8837D
:106B48004FF0FF30FAE76FF00F00F7E7104B40F215
:106B5800E5421049104816F055FA284617F062FE2B
:106B68000120FEF7C5F810F031FF6FF00F007047F5
:106B7800074B4FF49E620949074816F043FA30461E
:106B880017F050FE0120FEF7B3F810F01FFF00BF0A
:106B98003435002070350020E0360020883500208C
:106BA80090B32DE9F0410F46044602E0246883B211
:106BB80034B365899D42A3EB0500F7D921899E1856
:106BC800B1421DDBE91A8A4207DC6068394618447D
:106BD80017F076FF0020BDE8F0811FFA81F86068A1
:106BE80039464246184417F06BFF701B82B2002AE0
:106BF800F0D007EB08012068BDE8F041FFF77CBF43
:106C08004FF0FF30BDE8F0814FF0FF30704700BF14
:106C180018B90AE0006899B230B143898B42A1EBF8
:106C28000303F7D94368585C7047704770B50C4642
:106C380082B049B316460B6802680546934202D1F2
